:02000002D0002C
:1040000000400D0054540D00000006000C00050196
:08401000040135080000000066
:04401800E0510D0066
:10401C0009480A49884208B505D0094A824202D0AB
:10402C00121A01F08BF80748074A0021121A01F006
:10403C0093F8014808BD00BFD8E50320C4530D0018
:10404C0040E6032040E60320F0E7032070B5074E5E
:10405C00074C00F0A3FCA41BA4080025A54200D12A
:10406C0070BD56F8043B98470135F7E7A0530D0097
:10407C00C0530D0000F098B808B500F0B7F8BDE8D3
:10408C00084000F04DBC00F05FBA00F065BA007853
:10409C00B0FA80F0400970470123037070470000AC
:1040AC000A4B10B533F82040204600F0DBFF012806
:1040BC0005D12046002100F0BCFF002010BD204699
:1040CC00012100F0B6FF0120F8E700BF20520D00DF
:1040DC0010B5044600F08AFD124900F09BFB00F07D
:1040EC0085FD216800F096FB00F080FD00F099FB47
:1040FC000D49204600F037FB18B10020FFF7D0FF28
:10410C0010BD0A49204600F02EFB08B10120F5E74E
:10411C000749204600F027FB08B10220EEE74FF0DC
:10412C00FF30EDE7F4510D0004520D0008520D0064
:10413C000E520D0010B5044B0C4633F8200000F065
:10414C0078FF204610BD00BF20520D0008B500219D
:10415C000846FFF7EFFF00210120FFF7EBFFBDE85A
:10416C00084000210220FFF7E5BF08B5FFF7EEFF7E
:10417C000121072000F05DFF4FF4FA7000F08EFB78
:10418C000121062000F055FF4FF4FA7000F086FB79
:10419C000121052000F04DFF4FF4FA7000F07EFB7A
:1041AC00BDE80840FFF7D2BF08B50D4A0D490E48CF
:1041BC0000F03CFC00F01AFD4FF4165100F00AFD23
:1041CC000121072000F024FF0121062000F020FF30
:1041DC000121052000F01CFFBDE80840FFF7C5BF1A
:1041EC0013520D00DD400D000D4A0D00704700000C
:1041FC0008B5024B1B689B68019308BD680203005D
:10420C0008B5024B1B68DB68019308BD680203000C
:10421C0008B5024B1B689B68019308BD2C02030078
:10422C0008B5024B1B68DB68019308BD2C02030028
:10423C0008B5024B1B681B69019308BD2C020300D7
:10424C0008B5024B1B685B69019308BD2C02030087
:10425C0008B5024B1B685B68019308BD180203008C
:10426C0008B5024B1B685B69019308BD180203007B
:10427C0008B5024B1B685B6C019308BD4802030038
:10428C0008B5024B1B689B6C019308BD48020300E8
:10429C0008B5024B1B685B69019308BD64020300FF
:1042AC0008B5024B1B681B68019308BD3C02030058
:1042BC0008B5024B1B68DB68019308BD3C02030088
:1042CC0008B5024B1B681B69019308BD3C02030037
:1042DC0008B5024B1B685B69019308BD3C020300E7
:1042EC0008B5024B1B689B69019308BD3C02030097
:1042FC0008B5024B1B68DB69019308BD3C02030047
:10430C0008B5024B1B681B6A019308BD3C020300F5
:10431C0008B5024B1B689B6A019308BD3C02030065
:10432C0008B5024B1B681B6A019308BD28020300E9
:10433C0008B5024B1B685B6A019308BD2802030099
:10434C0008B5024B1B689B6A019308BD2802030049
:10435C0008B5024B1B68DB6A019308BD28020300F9
:10436C0008B5024B1B681B6B019308BD28020300A8
:10437C0008B5024B1B685B6B019308BD2802030058
:10438C0008B5024B1B681B6C019308BD2802030087
:10439C0008B5024B1B68DB69019308BD30020300B2
:1043AC0008B5024B1B681B6A019308BD3002030061
:1043BC0008B5024B1B681B68019308BD4C02030037
:1043CC0008B5024B1B685B68019308BD4C020300E7
:1043DC0008B5024B1B681B69019308BD4C02030016
:1043EC0008B5024B1B685B69019308BD4C020300C6
:1043FC0008B5024B1B689B69019308BD4C02030076
:10440C0008B5024B1B68DB69019308BD4C02030025
:10441C0008B5024B1B681B6A019308BD4C020300D4
:10442C0008B5024B1B685B68019308BD20020300B2
:10443C0008B5024B1B685B69019308BD20020300A1
:10444C0008B5034B1B68D3F88830019308BD0000F6
:10445C002002030008B5034B1B68D3F8943001937A
:10446C0008BD00002002030008B5024B1B685B6806
:10447C00019308BD4002030008B5024B1B689B6802
:10448C00019308BD4002030008B5024B1B68DB68B2
:10449C00019308BD4002030008B5024B1B681B6961
:1044AC00019308BD4002030008B5024B1B685B6911
:1044BC00019308BD4002030008B5024B1B689B69C1
:1044CC00019308BD4002030008B5024B1B68DB6971
:1044DC00019308BD4002030008B5024B1B681B6A20
:1044EC00019308BD4002030008B5024B1B681B6B0F
:1044FC00019308BD4002030008B5024B1B685B6BBF
:10450C00019308BD4002030008B5024B1B681B6CED
:10451C00019308BD4002030008B5024B1B685B6C9D
:10452C00019308BD4002030008B5024B1B685B6891
:10453C00019308BD4402030008B5024B1B68DB6BFA
:10454C00019308BD4402030008B5024B1B681B68AD
:10455C00019308BD1C02030008B5024B1B685B6885
:10456C00019308BD1C02030008B5024B1B689B6835
:10457C00019308BD1C02030008B5024B1B685B6C61
:10458C00019308BD1C020300002240681146FFF78E
:10459C00A3BF002240681146FFF7AEBF406800225F
:1045AC00FFF7A2BF4068002281F00101FFF78CBF2A
:1045BC00002340681A461946FFF77EBF0023406867
:1045CC001A461946FFF770BF002240681146FFF7E4
:1045DC0063BF002240681146FFF74EBF40680022BF
:1045EC000221FFF751BF002340681A46FFF73CBF7A
:1045FC00024B03225A60024A1A60704744E60320B9
:10460C0034520D0010B5044608462170FFF7C0FE69
:10461C0000236360204610BD10B50446006818B135
:10462C00FFF79AFF0023236010BD10B50446FFF777
:10463C00F3FF204610BD000010B5094B094C0222B7
:10464C0000201A60084B2060A080A071A360FFF7C7
:10465C00E7FE2046054A0649BDE8104000F056BD6D
:10466C0058E603204CE603200000FFFF40E6032041
:10467C0037460D0010B504460068FFF76DFF204665
:10468C0010BD10B50446006808B1FFF765FF0023A4
:10469C00C4E90133236010BD38B504460D460068EB
:1046AC000131FFF761FF10B1C4E90005012038BDED
:1046BC0010B50368044623B143688B4201D3012033
:1046CC0010BD2046FFF7E8FF0028F9D0A368002BA7
:1046DC00F5D122681370F2E737B50D4611460192F9
:1046EC000446FFF7E5FF019A28B92046FFF7C9FFFA
:1046FC00204603B030BDA2602946206800F01EFDA4
:10470C002268A3680021D154F2E7002313B5C0E955
:10471C00003304468360037341B10846019100F0F5
:10472C0051FD019902462046FFF7D6FF204602B004
:10473C0010BD884210B5044605D00B682BB18A68B1
:10474C001946FFF7C9FF204610BDFFF79AFFFAE79D
:10475C0010B500230446C0E9003383600373FFF7F0
:10476C00E8FF204610BD08B582683AB921B1087837
:10477C00B0FA80F0400900E0012008BD006809B9DA
:10478C000078F5E700F014FDF2E710B50446006878
:10479C0008B1FFF775FD204610BD000010B5064CA2
:1047AC00002320462360FFF763FD2046034A04499B
:1047BC00BDE8104000F0AABC5CE6032040E60320F4
:1047CC0097470D00F8B506460D468F180024BD42DC
:1047DC000CD0336815F8011B9B6830469847031EB4
:1047EC0001DB1C44F3E7002C08BF1C462046F8BD37
:1047FC0013B50446084659B1019100F0E3FC236857
:10480C000199DB680246204602B0BDE8104018470B
:10481C0002B010BD08B5FFF7EBFF08BD03689B683D
:10482C00184738B50D210546FFF7F8FF0A21044655
:10483C002846FFF7F3FF204438BD30B58BB000237A
:10484C008DF82430012A98BF0A2209AC0D46B1FB21
:10485C00F2F101FB125303F0FF03092B94BF303329
:10486C003733DBB2AA4204F8013DEFD92146FFF7FA
:10487C00BFFF0BB030BD0000014B024A1A607047FD
:10488C0060E6032068520D00024B1A68024B1A6056
:10489C00704700BFD8E5032064E603200021FFF732
:1048AC00C7BD10B58368044613B10322014698476F
:1048BC00204610BD10B50446FFF7F3FF204610BD8F
:1048CC000348044A04490023836000F01FBC00BF66
:1048DC0068E6032040E60320C1480D00014B186038
:1048EC00704700BFDCE5032008B50B4B43B100F06B
:1048FC007DF903681B699847002801DDAFF3008040
:10490C00064B43B100F0F0F903681B699847002887
:10491C0001DDAFF3008008BD0000000000000000C6
:10492C0008B5FFF7E1FFFFF79BFC014B186008BDD2
:10493C00D4E703200248034A0349121A00F0FEBBD5
:10494C0000F4032004F40320C0530D0007B500232A
:10495C0000931A466FF07701FFF77CFD03B05DF80A
:10496C0004FB000007B543880A2B08D0502B0BD151
:10497C00094B1B684BB103B05DF804EB1847FFF70C
:10498C00E5FF03B05DF804FB002300931A466FF0BB
:10499C007701FFF75FFDF4E77CE6032038B5124C96
:1049AC001248134D0021FFF7E7FD2368AB42114B72
:1049BC000CBF012200221A7002D0FFF7BBFF25604A
:1049CC00FFF746FC044600F0CFFB0B4B13B120461F
:1049DC00AFF3008000210848FFF7AEFDBDE838407A
:1049EC0006480021FFF72CBD00F40320E9480D0018
:1049FC001E1C279A78E603200000000071490D0068
:104A0C0010B588B004466846FFF77FFE694604A8D7
:104A1C00FFF79EFE04A8A047044604A8FFF72AFE51
:104A2C006846FFF727FE204608B010BD1FB50023CF
:104A3C00CDE90201019210241A4669461846ADF8D8
:104A4C000230ADF80040FFF76FFD04B010BD7047A9
:104A5C0010B51821044600F05EFB204610BDF0B5E1
:104A6C00037D062B8DB00E4600F104074FF00004B9
:104A7C0012D000F1080515F8011D0A223046FFF787
:104A8C00DCFEAF42044419D0002CF4D02E21304669
:104A9C00FFF7C4FE0444EEE72F236A4639460A208A
:104AAC008DF80040FFF7F4FB684600F08BFB336891
:104ABC000246DB68694630469847044620460DB0EE
:104ACC00F0BD000010B5054B0446112240F8043B24
:104ADC00002100F041FB204610BD00BF90520D009C
:104AEC000346074A10B543F8042B01F1100251F8A4
:104AFC00044B43F8044B9142F9D10A781A7010BD5B
:104B0C0090520D0010B59DF8084044EA032343EA87
:104B1C00024242EA016104234160037510BD13B5E2
:104B2C00CB7800938B784A780978FFF7EBFF02B0CB
:104B3C0010BD41747047704708B50021007CFFF729
:104B4C0057FC40EAE07008BD08B50121007CFFF776
:104B5C004FFC40EAE07008BD08B5007CFFF740FC54
:104B6C0020EAE07008BD08B5007CFFF731FC20EAB4
:104B7C00E07008BD13B50446007C0191FFF730FCD2
:104B8C000028019901DC607C20B1207CFFF738FC07
:104B9C0020EAE07002B010BD007CFFF739BC10B504
:104BAC001421044600F0B7FA204610BD10B54FF49E
:104BBC007A73044608460021C4E90113044B2360B0
:104BCC000123207463741146FFF7F2FB204610BDDD
:104BDC00A4520D00007C0022FFF7F2BB10B514228A
:104BEC000446002100F0B8FA204610BD10B5104C58
:104BFC0088B003A8FFF7F2FF2178BFF35B8F11F0A9
:104C0C00010111D120460191FFF741FA019958B1E8
:104C1C0003AA0848FFF7CAFF2046FFF73DFA064AE9
:104C2C000649044800F072FA024808B010BD00BFF3
:104C3C0080E6032084E6032040E60320434B0D006E
:104C4C0070474174704708B5007CFFF761FB20EAA0
:104C5C00E07008BD08B5007CFFF732FB20EAE0707D
:104C6C0008BD08B5007CFFF73BFB40EAE07008BDCF
:104C7C0008B5007CFFF72CFB40EAE07008BD007C17
:104C8C00FFF736BB37B5457C04462DB1207C03B00D
:104C9C00BDE83040FFF70CBB007C0191FFF738FBFF
:104CAC0000280199F2DC284603B030BD10B5142160
:104CBC00044600F030FA204610BD000010B54FF04D
:104CCC00000C0446084611464FF47A72C4E901C23E
:104CDC00044A22600122207462741A46FFF7E0FA3B
:104CEC00204610BDD4520D0013B50E4C2178BFF3E5
:104CFC005B8F11F0010112D120460191FFF7C7F92A
:104D0C00019960B1084A094B0948FFF7D7FF2046C3
:104D1C00FFF7C2F9074A0849054800F0F7F90448BB
:104D2C0002B010BD98E603209CE6032020E7032088
:104D3C00A4E7032040E603204D4C0D007047F8B566
:104D4C00064615460C468F18BC4206D0336814F83C
:104D5C00011B9B6830469847F6E72846F8BD007C57
:104D6C000022FFF7DDBA007C0021FFF7E1BA007CDE
:104D7C000021FFF7E5BA007C0021FFF7E9BA007CBF
:104D8C000021FFF7EDBA10B51421044600F0C3F969
:104D9C00204610BD10B54FF47A7304460846002126
:104DAC00C4E90113034B236020741146FFF7E8FAA2
:104DBC00204610BD04530D00002240681146FFF739
:104DCC006BBB002240681146FFF786BB002240688F
:104DDC001146FFF791BB40680022FFF785BB406886
:104DEC00002281F00101FFF76FBB002340681A46D7
:104DFC001946FFF761BB002340681A461946FFF7B6
:104E0C0053BB002240681146FFF736BB40680022B6
:104E1C000221FFF739BB002340681A46FFF724BB79
:104E2C00024B04225A60024A1A607047B8E703200A
:104E3C002C530D00002340681A46FFF715BB406841
:104E4C0000220221FFF720BB002240681146FFF729
:104E5C0013BB002240681146FFF71EBB00234068BD
:104E6C001A461946FFF720BB002340681A4619461C
:104E7C00FFF722BB40680021FFF746BB40680021CA
:104E8C00FFF74ABB4068002281F00101FFF71CBB11
:104E9C0040680022FFF728BB002240681146FFF74C
:104EAC002BBB002240681146FFF716BB2DE9F043DF
:104EBC00002495B016460D460746FFF703FE214623
:104ECC0018220EA8009400F047F94023CDE90C34C9
:104EDC0021466B460CAA3046FFF792F9044600288F
:104EEC0046D1024601216868FFF7D6FA02218046B6
:104EFC0022466868FFF7D0FA009E81462146002EB4
:104F0C0036D0002934D17368022B03D00A2B0BD076
:104F1C00F669F4E7B8F1000F04D071693846043132
:104F2C00FFF7FDFD4146F3E7B9F1000F01D149460A
:104F3C00EEE77469102201A800F00EF906238DF833
:104F4C00143001AD04F108031834186859682A4666
:104F5C0003C20833A3421546F7D101A906A807AD31
:104F6C00FFF7BEFD0FCD3C1D0FC42B682370DEE791
:104F7C000098FFF73DF9384615B0BDE8F083000006
:104F8C00024B034A1A6000225A607047C0E70320A4
:104F9C0068530D00232813B502D9002002B010BDB0
:104FAC00A0F10B03022B1AD8174C2178BFF35B8F9F
:104FBC0011F001010BD120460191FFF768F801991E
:104FCC0028B11248FFF71EFB2046FFF765F80F4B80
:104FDC001878FFF7E5F90028DFD10120DEE701287A
:104FEC0009D800F06BF80021007CFFF7C1F980F0C4
:104FFC000100C0B2D2E709380128EED8FFF774FEE1
:10500C00007CFFF77DF9F2E7C8E70320CCE703202B
:10501C00232838B504460D460AD8FF2908D0FFF7D7
:10502C00B9FF28B129462046BDE83840FFF7F0B853
:10503C0038BD38B504460D46FFF7F2F8FF2810D0FE
:10504C00062804D84D2323FA00F0C30709D42046C0
:10505C00FFF7A0FF28B129462046BDE83840FFF7EE
:10506C00E7B838BD10B50446FFF7DAF8031FDBB21A
:10507C00012B08D92046FFF78DFF20B12046BDE853
:10508C001040FFF7DDB8002010BD000038B500233C
:10509C00202543801423044603808560056106495E
:1050AC00284600F03AF804496060284600F035F8CC
:1050BC00E060204638BD00BF9C530D0030B50F4D4D
:1050CC002978BFF35B8F11F0010487B013D1284608
:1050DC00FEF7DDFF78B101A8FFF7D8FF01AA214642
:1050EC000748FFF757FE2846FEF7D6FF054A064944
:1050FC00034800F00BF8024807B030BDD8E7032096
:10510C00DCE7032040E60320494D0D000B46014629
:10511C00184600F005B8FEF7B8BFFEF7B4BF0000A4
:10512C0010B5054C13462CB10A4601460220AFF3CC
:10513C00008010BD2046FCE7000000000A449142AC
:10514C0000F1FF3300D1704710B511F8014B03F893
:10515C00014F9142F9D110BD02440346934200D154
:10516C00704703F8011BF9E738B50D4B1D68AB6BA5
:10517C0004467BB91820FFF7E7F90A4A0A4BA863E3
:10518C00C0E90023094B83600B2383810122002398
:10519C00C0E90423AB6B00221C615A6138BD00BF0F
:1051AC00DCE503200E33CDAB34126DE6ECDE0500EE
:1051BC0010F8012B11F8013B012A28BF9A42F7D0B5
:1051CC00D01A7047034613F8012B002AFBD1181A8A
:1051DC00013870471D400D0059400D0081400D00F5
:1051EC0085400D00000000005265636569766564BA
:1051FC0020617267733A200072656400677265659E
:10520C006E00626C756500746F67676C656C6967BE
:10521C006874000007000000060000000500000094
:10522C000000000000000000F3450D00E9450D00F2
:10523C00DF450D00D5450D00C9450D00BD450D00E0
:10524C00814E0D00894E0D00B1450D00A9450D0094
:10525C009F450D0095450D00B94E0D006170700015
:10526C0025592D256D2D25645425483A254D3A2573
:10527C0053257A0061736374696D6500000000004A
:10528C00000000006B4A0D005B4A0D005D4A0D00EA
:10529C000000000000000000434B0D00AB4B0D0064
:1052AC00814B0D00D1470D00734B0D00454B0D008C
:1052BC00554B0D00A54B0D00654B0D003F4B0D00E4
:1052CC0000000000000000004D4C0D00B94C0D001A
:1052DC00914C0D00D1470D00614C0D007D4C0D0023
:1052EC006F4C0D008B4C0D004F4C0D00534C0D00B2
:1052FC000000000000000000494D0D00934D0D0012
:10530C006B4D0D004B4D0D00734D0D007B4D0D0085
:10531C00834D0D008B4D0D000000000000000000BF
:10532C00234E0D00194E0D000F4E0D00C54D0D00F6
:10533C00034E0D00F74D0D00814E0D00894E0D00F2
:10534C00EB4D0D00E34D0D00D94D0D00CF4D0D0073
:10535C00B94E0D000000000000000000414E0D0091
:10536C004B4E0D00554E0D005F4E0D00694E0D005D
:10537C00754E0D00814E0D00894E0D00914E0D00A5
:10538C009D4E0D00A54E0D00AF4E0D00B94E0D00FB
:10539C0000000000FD450D0045460D00A9470D001D
:1053AC0085480D0095480D00CD480D002D4E0D0083
:0453BC008D4F0D0004
:0453C00000000000E9
:1053C40080520D00E0E50320000000000000000012
:1053D40000000000000000000000000000000000C9
:1053E40000000000000000000000000000000000B9
:1053F40000000000000000000000000000000000A9
:105404000000000000000000000000000000000098
:105414000000000000000000000000000000000088
:08542400000000000000000080
:10542C00FFFFFFFF00000102030405060708090A3D
:10543C000B0C0D0E0F101112131415161718191A38
:08544C001B1C1D1E1F2028007F
:045454007856341240
:04000003D000401CCD
:00000001FF
