:02000002D0002C
:1040000000400D0014510D00000006000C000501D9
:08401000040135080000000066
:04401800C04E0D0089
:10401C0009480A49884208B505D0094A824202D0AB
:10402C00121A00F005FF0748074A0021121A00F087
:10403C000DFF014808BD00BFDCE5032084500D00D6
:10404C0044E6032044E60320F0E7032070B5074E56
:10405C00074C00F0ADFBA41BA4080025A54200D121
:10406C0070BD56F8043B98470135F7E758500D00E2
:10407C007C500D0000F014B808B500F02BF8BDE82A
:10408C00084000F057BB00F007BA00F00DBA0078FA
:10409C00B0FA80F0400970470123037070470000AC
:1040AC0008B5022200230849084800F0E5F911215F
:1040BC00074800F05EF800F07BFCBDE808404FF4C8
:1040CC00165100F069BC00BF48E60320D44E0D0029
:1040DC004CE6032038B500F06BFC0F4B1C68002C31
:1040EC00054616DA2D2100F0A3FA61420A22284671
:1040FC0000F0ADFA00F05CFC084900F095FA00F015
:10410C0057FC00F098FABDE838404FF47A7000F094
:10411C00CFBA2146EAE700BF48E60320DF4E0D0088
:10412C00014800F003B800BF4CE603207047A1F132
:10413C001003DBB2132B10B50C4619D8012202FA6E
:10414C0003F313F00B1F13D000F032FE232100F009
:10415C001FFD00F02DFE036821469B68984700F078
:10416C0027FE00F01CFDBDE810400A2000F0A0BAAC
:10417C0010BD13B50446019100F01AFE00F0FEFCD0
:10418C000199204602B0BDE81040FFF7D0BF0000F7
:10419C0008B5024B1B689B68019308BD68020300BD
:1041AC0008B5024B1B68DB68019308BD680203006D
:1041BC0008B5024B1B685B68019308BD180203002D
:1041CC0008B5024B1B685B69019308BD180203001C
:1041DC0008B5024B1B685B6C019308BD48020300D9
:1041EC0008B5024B1B689B6C019308BD4802030089
:1041FC0008B5024B1B685B69019308BD64020300A0
:10420C0008B5024B1B681B68019308BD3C020300F8
:10421C0008B5024B1B68DB68019308BD3C02030028
:10422C0008B5024B1B681B69019308BD3C020300D7
:10423C0008B5024B1B685B69019308BD3C02030087
:10424C0008B5024B1B689B69019308BD3C02030037
:10425C0008B5024B1B68DB69019308BD3C020300E7
:10426C0008B5024B1B689B6A019308BD3C02030016
:10427C0008B5024B1B68DB68019308BD28020300DC
:10428C0008B5024B1B689B69019308BD280203000B
:10429C0008B5024B1B68DB69019308BD28020300BB
:1042AC0008B5024B1B681B6A019308BD280203006A
:1042BC0008B5024B1B685B6A019308BD280203001A
:1042CC0008B5024B1B689B6A019308BD28020300CA
:1042DC0008B5024B1B68DB6A019308BD280203007A
:1042EC0008B5024B1B681B6B019308BD2802030029
:1042FC0008B5024B1B681B6C019308BD2802030018
:10430C0008B5024B1B681B68019308BD4C020300E7
:10431C0008B5024B1B685B68019308BD4C02030097
:10432C0008B5024B1B681B69019308BD4C020300C6
:10433C0008B5024B1B685B69019308BD4C02030076
:10434C0008B5024B1B689B69019308BD4C02030026
:10435C0008B5024B1B68DB69019308BD4C020300D6
:10436C0008B5024B1B681B6A019308BD4C02030085
:10437C0008B5024B1B685B68019308BD2002030063
:10438C0008B5024B1B685B69019308BD2002030052
:10439C0008B5034B1B68D3F88830019308BD0000A7
:1043AC002002030008B5034B1B68D3F8943001932B
:1043BC0008BD00002002030008B5024B1B685B68B7
:1043CC00019308BD4002030008B5024B1B689B68B3
:1043DC00019308BD4002030008B5024B1B68DB6863
:1043EC00019308BD4002030008B5024B1B681B6912
:1043FC00019308BD4002030008B5024B1B685B69C2
:10440C00019308BD4002030008B5024B1B689B6971
:10441C00019308BD4002030008B5024B1B68DB6921
:10442C00019308BD4002030008B5024B1B681B6AD0
:10443C00019308BD4002030008B5024B1B681B6BBF
:10444C00019308BD4002030008B5024B1B685B6B6F
:10445C00019308BD4002030008B5024B1B681B6C9E
:10446C00019308BD4002030008B5024B1B685B6C4E
:10447C00019308BD4002030008B5024B1B681B6882
:10448C00019308BD4402030008B5024B1B68DB6BAB
:10449C00019308BD4402030008B5024B1B681B685E
:1044AC00019308BD1C02030008B5024B1B685B6836
:1044BC00019308BD1C02030008B5024B1B685B6C22
:1044CC00019308BD1C020300002240681146FFF74F
:1044DC00ABBF002240681146FFF7B6BF4068002210
:1044EC00FFF7AABF4068002281F00101FFF794BFDB
:1044FC00002340681A461946FFF786BF0023406820
:10450C001A461946FFF778BF002240681146FFF79C
:10451C006BBF002240681146FFF756BF406800226F
:10452C000221FFF759BF002340681A46FFF744BF2A
:10453C00024B03225A60024A1A60704750E603206D
:10454C00EC4E0D0010B50446006818B1FFF7ACFF37
:10455C000023236010BD10B50446FFF7F3FF20467F
:10456C0010BD000010B5094B094C022200201A6046
:10457C00084B2060A080A071A360FFF7F9FE2046D5
:10458C00054A0649BDE8104000F03ABC64E6032039
:10459C0058E603200000FFFF44E6032063450D00AE
:1045AC0010B50446006808B1FFF71AFE204610BD8E
:1045BC0010B5064C002320462360FFF709FE204669
:1045CC00034A0449BDE8104000F01ABC68E6032019
:1045DC0044E60320AD450D00F8B506460D468F1890
:1045EC000024BD420CD0336815F8011B9B68304683
:1045FC009847031E01DB1C44F3E7002C08BF1C4644
:10460C002046F8BD13B50446084659B1019100F097
:10461C0049FC23680199DB680246204602B0BDE8DC
:10462C001040184702B010BD08B5FFF7EBFF08BDEE
:10463C0003689B68184738B50D210546FFF7F8FF4E
:10464C000A2104462846FFF7F3FF204438BD30B555
:10465C008BB000238DF82430012A98BF0A2209ACB4
:10466C000D46B1FBF2F101FB125303F0FF03092BD2
:10467C0094BF30333733DBB2AA4204F8013DEFD993
:10468C002146FFF7BFFF0BB030BD0000014B024AC3
:10469C001A6070476CE60320204F0D00024B1A681D
:1046AC00024B1A60704700BFDCE5032070E6032064
:1046BC000021FFF765BE10B58368044613B10322D1
:1046CC0001469847204610BD10B50446FFF7F3FF8E
:1046DC00204610BD0348044A04490023836000F0BF
:1046EC008FBB00BF74E6032044E60320D5460D00C3
:1046FC00014B1860704700BFE0E5032008B50B4B79
:10470C0043B100F055F903681B699847002801DD97
:10471C00AFF30080064B43B100F0C8F903681B6986
:10472C009847002801DDAFF3008008BD00000000B1
:10473C000000000008B5FFF7E1FFFFF741FD014B5A
:10474C00186008BDD4E703200248034A0349121A33
:10475C0000F06EBB00F4032004F4032080500D0025
:10476C0007B5002300931A466FF07701FFF71AFE86
:10477C0003B05DF804FB000007B543880A2B08D092
:10478C00502B0BD1094B1B684BB103B05DF804EBFC
:10479C001847FFF7E5FF03B05DF804FB0023009317
:1047AC001A466FF07701FFF7FDFDF4E788E603206A
:1047BC0038B5124C1248134D0021FFF77DFE2368CB
:1047CC00AB42114B0CBF012200221A7002D0FFF732
:1047DC00BBFF2560FFF7ECFC044600F03FFB0B4BE6
:1047EC0013B12046AFF3008000210848FFF74CFEC0
:1047FC00BDE8384006480021FFF7CABD00F403208D
:10480C00FD460D001E1C279A84E6032000000000C4
:10481C0085470D00704710B51821044600F0F5FAD5
:10482C00204610BDF0B5037D062B8DB00E4600F171
:10483C0004074FF0000412D000F1080515F8011D13
:10484C000A223046FFF703FFAF42044419D0002C74
:10485C00F4D02E213046FFF7EBFE0444EEE72F2375
:10486C006A4639460A208DF80040FFF7C1FC6846BD
:10487C0000F018FB33680246DB68694630469847FF
:10488C00044620460DB0F0BD10B5054B0446112270
:10489C0040F8043B002100F0D9FA204610BD00BFBF
:1048AC00484F0D000346074A10B543F8042B01F19D
:1048BC00100251F8044B43F8044B9142F9D10A7899
:1048CC001A7010BD484F0D0010B59DF8084044EA11
:1048DC00032343EA024242EA016104234160037567
:1048EC0010BD13B5CB7800938B784A780978FFF715
:1048FC00EBFF02B010BD41747047704708B5002142
:10490C00007CFFF71DFD40EAE07008BD08B50121F1
:10491C00007CFFF715FD40EAE07008BD08B5007C8F
:10492C00FFF706FD20EAE07008BD08B5007CFFF734
:10493C00F7FC20EAE07008BD13B50446007C019139
:10494C00FFF7F6FC0028019901DC607C20B1207C8B
:10495C00FFF7FEFC20EAE07002B010BD007CFFF710
:10496C00FFBC10B51421044600F04FFA204610BDD0
:10497C0010B54FF47A73044608460021C4E90113BC
:10498C00044B23600123207463741146FFF7B8FCB9
:10499C00204610BD5C4F0D00007C0022FFF7B8BC18
:1049AC0010B514220446002100F050FA204610BD28
:1049BC0010B5104C88B003A8FFF7F2FF2178BFF3B5
:1049CC005B8F11F0010111D120460191FFF75FFBC4
:1049DC00019958B103AA0848FFF7CAFF2046FFF710
:1049EC005BFB064A0649044800F00AFA024808B084
:1049FC0010BD00BF8CE6032090E6032044E60320A4
:104A0C0007490D0070474174704708B5007CFFF7EB
:104A1C0027FC20EAE07008BD08B5007CFFF700FC1D
:104A2C0020EAE07008BD08B5007CFFF709FC40EAFD
:104A3C00E07008BD08B5007CFFF7FAFB40EAE070B7
:104A4C0008BD007CFFF704BC37B5457C04462DB18E
:104A5C00207C03B0BDE83040FFF7DABB007C01914D
:104A6C00FFF7FEFB00280199F2DC284603B030BDAD
:104A7C0010B51421044600F0C8F9204610BD000002
:104A8C0010B54FF0000C0446084611464FF47A72EC
:104A9C00C4E901C2044A22600122207462741A46DD
:104AAC00FFF7AEFB204610BD8C4F0D0013B50E4C1E
:104ABC002178BFF35B8F11F0010112D120460191D7
:104ACC00FFF7E5FA019960B1084A094B0948FFF76D
:104ADC00D7FF2046FFF7E0FA074A0849054800F0DF
:104AEC008FF9044802B010BDA4E60320A8E6032009
:104AFC002CE70320B0E7032044E60320114A0D0005
:104B0C007047F8B5064615460C468F18BC4206D0C1
:104B1C00336814F8011B9B6830469847F6E7284623
:104B2C00F8BD007C0022FFF7BBBB007C0021FFF727
:104B3C00BFBB007C0021FFF7C3BB007C0021FFF74B
:104B4C00C7BB007C0021FFF7CBBB10B5142104467A
:104B5C0000F05BF9204610BD10B54FF47A73044693
:104B6C0008460021C4E90113034B2360207411464D
:104B7C00FFF7BEFB204610BDBC4F0D000023007C90
:104B8C001A461946FFF774BB007C0022FFF778BB6E
:104B9C00C9B2FFF7F9BF007C0022FFF779BB0121F6
:104BAC00FFF7F9BF002240681146FFF71DBC002239
:104BBC0040681146FFF738BC002240681146FFF7E9
:104BCC0043BC40680022FFF737BC4068002281F0EC
:104BDC000101FFF721BC002340681A461946FFF774
:104BEC0013BC002340681A461946FFF705BC002287
:104BFC0040681146FFF7E8BB406800220221FFF72E
:104C0C00EBBB002340681A46FFF7D6BB024B0422CD
:104C1C005A60024A1A607047C4E70320E44F0D0043
:104C2C00002340681A46FFF7C7BB406800220221E8
:104C3C00FFF7D2BB002240681146FFF7C5BB00222C
:104C4C0040681146FFF7D0BB002340681A4619464E
:104C5C00FFF7D2BB002340681A461946FFF7D4BBB6
:104C6C0040680021FFF7F8BB40680021FFF7FCBB50
:104C7C004068002281F00101FFF7CEBB40680022A2
:104C8C00FFF7DABB002240681146FFF7DDBB0022BC
:104C9C0040681146FFF7C8BB2DE9F043002495B0DE
:104CAC0016460D460746FFF7EFFD214618220EA8C3
:104CBC00009400F0CBF84023CDE90C3421466B4630
:104CCC000CAA3046FFF76CFA0446002846D102467F
:104CDC0001216868FFF788FB02218046224668683C
:104CEC00FFF782FB009E81462146002E36D000291C
:104CFC0034D17368022B03D00A2B0BD0F669F4E77E
:104D0C00B8F1000F04D0716938460431FFF7E9FDA2
:104D1C004146F3E7B9F1000F01D14946EEE774695A
:104D2C00102201A800F092F806238DF8143001AD82
:104D3C0004F108031834186859682A4603C208336A
:104D4C00A3421546F7D101A906A807ADFFF7AAFDA6
:104D5C000FCD3C1D0FC42B682370DEE70098FFF7C6
:104D6C0017FA384615B0BDE8F0830000024B034A31
:104D7C001A6000225A607047CCE7032020500D00C7
:104D8C0038B5002320254380142304460380856016
:104D9C0005610649284600F03AF804496060284647
:104DAC0000F035F8E060204638BD00BF54500D00CF
:104DBC0030B50F4D2978BFF35B8F11F0010487B02C
:104DCC0013D12846FFF763F978B101A8FFF7D8FF94
:104DDC0001AA21460748FFF7BFFE2846FFF75CF9FA
:104DEC00054A0649034800F00BF8024807B030BDED
:104DFC00D8E70320DCE7032044E603200D4B0D002D
:104E0C000B460146184600F005B8FFF73EB9FFF710
:104E1C003AB9000010B5054C13462CB10A460146B0
:104E2C000220AFF3008010BD2046FCE7000000001C
:104E3C000A44914200F1FF3300D1704710B511F8CC
:104E4C00014B03F8014F9142F9D110BD02440346C6
:104E5C00934200D1704703F8011BF9E738B50D4BAD
:104E6C001D68AB6B04467BB91820FFF715FB0A4A8B
:104E7C000A4BA863C0E90023094B83600B23838191
:104E8C0001220023C0E90423AB6B00221C615A6190
:104E9C0038BD00BFE0E503200E33CDAB34126DE618
:104EAC00ECDE0500034613F8012B002AFBD1181A7F
:104EBC00013870471D400D0059400D0081400D0018
:104ECC0085400D00000000004C756D696E6F7369B4
:104EDC00747900206C7800000000000000000000D5
:104EEC0033450D0029450D001F450D0015450D00DE
:104EFC0009450D00FD440D006D4C0D00754C0D0069
:104F0C00F1440D00E9440D00DF440D00D5440D00C3
:104F1C00A54C0D006170700025592D256D2D256453
:104F2C005425483A254D3A2553257A00617363740C
:104F3C00696D6500000000000000000031480D00A4
:104F4C0021480D0023480D00000000000000000067
:104F5C0007490D006F490D0045490D00E5450D0051
:104F6C0037490D0009490D0019490D0069490D001B
:104F7C0029490D0003490D0000000000000000004D
:104F8C00114A0D007D4A0D00554A0D00E5450D00F6
:104F9C00254A0D00414A0D00334A0D004F4A0D00C1
:104FAC00134A0D00174A0D0000000000000000001D
:104FBC000D4B0D00574B0D002F4B0D000F4B0D00E3
:104FCC00374B0D003F4B0D00474B0D004F4B0D0069
:104FDC0000000000000000000F4C0D00054C0D00FF
:104FEC00FB4B0D00B14B0D00EF4B0D00E34B0D00D7
:104FFC006D4C0D00754C0D00D74B0D00CF4B0D00BB
:10500C00C54B0D00BB4B0D00A54C0D000000000066
:10501C00000000002D4C0D00374C0D00414C0D00D4
:10502C004B4C0D00554C0D00614C0D006D4C0D00A2
:10503C00754C0D007D4C0D00894C0D00914C0D00F4
:10504C009B4C0D00A54C0D00000000002D410D00E7
:10505C003D450D0071450D00BD450D0099460D00F7
:10506C00A9460D00E1460D00194C0D00794D0D00BF
:04507C000000000030
:04508000000000002C
:10508400384F0D00E4E5032000000000000000009C
:10509400000000000000000000000000000000000C
:1050A40000000000000000000000000000000000FC
:1050B40000000000000000000000000000000000EC
:1050C40000000000000000000000000000000000DC
:1050D40000000000000000000000000000000000CC
:0850E4000000000000000000C4
:1050EC00FFFFFFFF00000102030405060708090A81
:1050FC000B0C0D0E0F101112131415161718191A7C
:08510C001B1C1D1E1F202800C2
:045114007856341283
:04000003D000401CCD
:00000001FF
