:02000002D0002C
:1040000000400D00B4580D00000006000C00050132
:08401000040135080000000066
:0440180024560D001D
:1040200009480A49884208B505D0094A824202D0A7
:10403000121A01F0B5FA0748074A0021121A01F0D6
:10404000BDFA014808BD00BFD4E5032024580D0087
:104050003CE603203CE60320F0E7032070B5074E62
:10406000074C00F095FCA41BA4080025A54200D134
:1040700070BD56F8043B98470135F7E700580D002E
:1040800020580D0000F0EAB808B500F0E9F8BDE8E6
:10409000084000F03FBC00F0E5BA00F0EBBA007851
:1040A000B0FA80F040097047012303707047012186
:1040B00080B200F0BEBF002180B200F0BABF08B5E8
:1040C0000820FFF7F8FF0720FFF7F5FF0620FFF7AE
:1040D000F2FFBDE808400520FFF7EDBF08B500225C
:1040E000074B51EC100B01F01BF801F02BFABDE867
:1040F000084002464FF47A71032000F077BD00BFFC
:1041000000408F4000224FF47A71032000F06EBD12
:10411000032000F082BD08B580B200F0A3FF431E6B
:104120005842584108BD08B5042000F09BFF431ECB
:104130005842584108BD0000024A137883F0010339
:104140001370704741E603202DE9F843284E002400
:1041500056F8045B2846FFF7AAFFFA2000F098FB08
:1041600001342846FFF7A7FF042CF1D19FED1E0B69
:10417000FFF7B4FF00F010FD4FF4165100F0FCFC07
:104180001C4EDFF87C90DFF87C801B4F002456F833
:10419000040BFFF7C0FF0134054600F0FDFC494663
:1041A00000F032FB00F0F8FC0A22214600F03FFB51
:1041B00000F0F2FC414600F027FB00F0EDFC0F4957
:1041C000002D18BF394600F01FFB00F0E5FC00F0A1
:1041D00022FB032CDBD100F0DFFCBDE8F84300F04C
:1041E000CFBC00BFAFF30080000000000000F03F34
:1041F0007C560D0070560D0038560D0048560D00C7
:104200005B560D006A560D0070B5134E002456F82B
:10421000045B0121A8B200F0FBFE01342846FFF741
:104220004AFF042CF3D100210B2000F0F1FE002105
:104230000C2000F0EDFE00210D2000F0E9FE2046EC
:10424000002100F0E5FE0121032000F0E1FEBDE8C1
:104250007040FFF779BF00BF7C560D00FFF7D4BF59
:1042600070B5FFF760FF30B1184A137883F001038F
:104270001370FFF761FFFFF756FF18B1322000F00F
:1042800007FBF8E7124C22780520AAB1FFF70FFFD1
:104290002378A3B10F4D104E002455F8040BFFF7FF
:1042A0003AFF28B1FFF72EFF56F82400FFF7FFFE74
:1042B0000134032CF1D170BDFFF7FDFEE8E7FFF7F5
:1042C000FEFEBDE87040FFF723BF00BF40E60320BD
:1042D00041E6032070560D007C560D0008B5024BD8
:1042E0001B689B68019308BD6802030008B5024B78
:1042F0001B68DB68019308BD6802030008B5024B28
:104300001B685B68019308BD2C02030008B5024BD3
:104310001B689B68019308BD2C02030008B5024B83
:104320001B68DB68019308BD2C02030008B5024B33
:104330001B681B69019308BD2C02030008B5024BE2
:104340001B685B69019308BD2C02030008B5024B92
:104350001B685B68019308BD1802030008B5024B97
:104360001B685B69019308BD1802030008B5024B86
:104370001B685B6C019308BD4802030008B5024B43
:104380001B689B6C019308BD4802030008B5024BF3
:104390001B685B69019308BD6402030008B5024B0A
:1043A0001B681B68019308BD3C02030008B5024B63
:1043B0001B68DB68019308BD3C02030008B5024B93
:1043C0001B681B69019308BD3C02030008B5024B42
:1043D0001B685B69019308BD3C02030008B5024BF2
:1043E0001B689B69019308BD3C02030008B5024BA2
:1043F0001B68DB69019308BD3C02030008B5024B52
:104400001B681B6A019308BD3C02030008B5024B00
:104410001B689B6A019308BD3C02030008B5024B70
:104420001B681B6A019308BD2802030008B5024BF4
:104430001B685B6A019308BD2802030008B5024BA4
:104440001B689B6A019308BD2802030008B5024B54
:104450001B68DB6A019308BD2802030008B5024B04
:104460001B681B6B019308BD2802030008B5024BB3
:104470001B685B6B019308BD2802030008B5024B63
:104480001B681B6C019308BD2802030008B5024B92
:104490001B68DB69019308BD3002030008B5024BBD
:1044A0001B681B6A019308BD3002030008B5024B6C
:1044B0001B681B68019308BD2402030008B5024B6A
:1044C0001B685B68019308BD2402030008B5024B1A
:1044D0001B681B68019308BD4C02030008B5024B22
:1044E0001B685B68019308BD4C02030008B5024BD2
:1044F0001B689B68019308BD4C02030008B5024B82
:104500001B681B69019308BD4C02030008B5024BF0
:104510001B685B69019308BD4C02030008B5024BA0
:104520001B689B69019308BD4C02030008B5024B50
:104530001B68DB69019308BD4C02030008B5024B00
:104540001B681B6A019308BD4C02030008B5024BAF
:104550001B685B68019308BD2002030008B5024B8D
:104560001B685B69019308BD2002030008B5034B7B
:104570001B68D3F88830019308BD000020020300B7
:1045800008B5034B1B68D3F89430019308BD0000B5
:104590002002030008B5024B1B685B68019308BD4D
:1045A0004002030008B5024B1B689B68019308BDDD
:1045B0004002030008B5024B1B68DB68019308BD8D
:1045C0004002030008B5024B1B681B69019308BD3C
:1045D0004002030008B5024B1B685B69019308BDEC
:1045E0004002030008B5024B1B689B69019308BD9C
:1045F0004002030008B5024B1B68DB69019308BD4C
:104600004002030008B5024B1B681B6A019308BDFA
:104610004002030008B5024B1B681B6B019308BDE9
:104620004002030008B5024B1B685B6B019308BD99
:104630004002030008B5024B1B681B6C019308BDC8
:104640004002030008B5024B1B685B6C019308BD78
:104650004002030008B5024B1B68DB6B019308BDE9
:104660004402030008B5024B1B681B68019308BD98
:104670001C02030008B5024B1B685B68019308BD70
:104680001C02030008B5024B1B685B6C019308BD5C
:104690001C020300002240681146FFF7B3BF00224E
:1046A00040681146FFF7BEBF40680022FFF7B2BF67
:1046B0004068002281F00101FFF79CBF00234068A1
:1046C0001A461946FFF78EBF002340681A4619465E
:1046D000FFF780BF002240681146FFF773BF00223A
:1046E00040681146FFF75EBF406800220221FFF7D5
:1046F00061BF002340681A46FFF74CBF024B0322FC
:104700005A60024A1A60704744E6032094560D002E
:1047100010B5044608462170FFF7B8FE0023636019
:10472000204610BD10B50446006818B1FFF7A2FF7F
:104730000023236010BD10B50446FFF7F3FF2046A9
:1047400010BD000010B5094B094C022200201A6070
:10475000084B2060A080A071A360FFF7F7FE204601
:10476000054A0649BDE8104000F0D0BC58E60320D9
:104770004CE603200000FFFF3CE6032037470D0016
:1047800010B50446006808B1FFF7F8FD204610BDDB
:1047900010B5064C002320462360FFF7E7FD2046B6
:1047A000034A0449BDE8104000F0B0BC5CE60320B9
:1047B0003CE6032081470D00F8B506460D468F18EC
:1047C0000024BD420CD0336815F8011B9B683046AD
:1047D0009847031E01DB1C44F3E7002C08BF1C466E
:1047E0002046F8BD13B50446084659B1019100F0C2
:1047F00011FF23680199DB680246204602B0BDE83C
:104800001040184702B010BD08B5FFF7EBFF08BD18
:1048100003689B68184738B50D210546FFF7F8FF78
:104820000A2104462846FFF7F3FF204438BD30B57F
:104830008BB000238DF82430012A98BF0A2209ACDE
:104840000D46B1FBF2F101FB125303F0FF03092BFC
:1048500094BF30333733DBB2AA4204F8013DEFD9BD
:104860002146FFF7BFFF0BB030BD0000014B024AED
:104870001A60704760E60320C8560D00024B1A68A4
:10488000024B1A60704700BFD4E5032064E60320A2
:104890000021FFF763BE10B58368044613B10322FD
:1048A00001469847204610BD10B50446FFF7F3FFB8
:1048B000204610BD0348044A04490023836000F0E9
:1048C00025BC00BF68E603203CE60320A9480D0094
:1048D000014B1860704700BFD8E5032008B50B4BAB
:1048E00043B100F059F903681B699847002801DDBE
:1048F000AFF30080064B43B100F0F6F903681B6983
:104900009847002801DDAFF3008008BD00000000DB
:104910000000000008B5FFF7E1FFFFF71FFD014BA6
:10492000186008BDD4E703200248034A0349121A5D
:1049300000F036BE00F4032004F4032020580D00DC
:1049400007B5002300931A466FF07701FFF718FEB2
:1049500003B05DF804FB000007B543880A2B08D0BC
:10496000502B0BD1094B1B684BB103B05DF804EB26
:104970001847FFF7E5FF03B05DF804FB0023009341
:104980001A466FF07701FFF7FBFDF4E77CE60320A2
:1049900038B5124C1248134D0021FFF773FE2368FF
:1049A000AB42114B0CBF012200221A7002D0FFF75C
:1049B000BBFF2560FFF7CAFC044600F007FE0B4B67
:1049C00013B12046AFF3008000210848FFF742FEF4
:1049D000BDE8384006480021FFF7C8BD00F40320B9
:1049E000D1480D001E1C279A78E603200000000025
:1049F00059490D00704710B51821044600F08BFB93
:104A0000204610BDF0B5037D062B8DB00E4600F19B
:104A100004074FF0000412D000F1080515F8011D3D
:104A20000A223046FFF703FFAF42044419D0002C9E
:104A3000F4D02E213046FFF7EBFE0444EEE72F239F
:104A40006A4639460A208DF80040FFF79FFC684609
:104A500000F0E0FD33680246DB686946304698475F
:104A6000044620460DB0F0BD10B5054B044611229A
:104A700040F8043B002100F0A1FD204610BD00BF1E
:104A8000F0560D000346074A10B543F8042B01F118
:104A9000100251F8044B43F8044B9142F9D10A78C3
:104AA0001A7010BDF0560D0010B59DF8084044EA8C
:104AB000032343EA024242EA016104234160037591
:104AC00010BD13B5CB7800938B784A780978FFF73F
:104AD000EBFF02B010BD41747047704708B500216C
:104AE000007CFFF71BFD40EAE07008BD08B501211E
:104AF000007CFFF713FD40EAE07008BD08B5007CBC
:104B0000FFF704FD20EAE07008BD08B5007CFFF760
:104B1000F5FC20EAE07008BD13B50446007C019165
:104B2000FFF7F4FC0028019901DC607C20B1207CB7
:104B3000FFF7FCFC20EAE07002B010BD007CFFF73C
:104B4000FDBC10B51421044600F0E5FA204610BD66
:104B500010B54FF47A73044608460021C4E90113E6
:104B6000044B23600123207463741146FFF7AEFCED
:104B7000204610BD04570D00007C0022FFF7AEBC9C
:104B8000007CFFF7B3BC10B514220446002100F0EE
:104B900015FD204610BD000010B5104C88B003A8CC
:104BA000FFF7F1FF2178BFF35B8F11F0010111D105
:104BB00020460191FFF773FA019958B103AA0848FA
:104BC000FFF7C6FF2046FFF76FFA064A064904487A
:104BD00000F09CFA024808B010BD00BF80E6032038
:104BE00084E603203CE60320DB4A0D00F8B587B2DB
:104BF000044638460D46164600F0CCF960B1022155
:104C00003846FFF77BFB022806D13246294620466C
:104C1000BDE8F840FFF74ABCF8BD38B585B2044698
:104C2000284600F0B7F950B102212846FFF766FB8D
:104C3000022804D12046BDE83840FFF73FBC38BD0C
:104C400070474174704708B5007CFFF7DFFB20EA2E
:104C5000E07008BD08B5007CFFF7B0FB20EAE0700B
:104C600008BD08B5007CFFF7B9FB40EAE07008BD5D
:104C700008B5007CFFF7AAFB40EAE07008BD007CA5
:104C8000FFF7B4BB37B5457C04462DB1207C03B09B
:104C9000BDE83040FFF78ABB007C0191FFF7B6FB0F
:104CA00000280199F2DC284603B030BD10B514216C
:104CB000044600F030FA204610BD000010B54FF059
:104CC000000C0446084611464FF47A72C4E901C24A
:104CD000044A22600122207462741A46FFF75EFBC8
:104CE000204610BD34570D0013B50E4C2178BFF38C
:104CF0005B8F11F0010112D120460191FFF7CFF92E
:104D0000019960B1084A094B0948FFF7D7FF2046CF
:104D1000FFF7CAF9074A0849054800F0F7F90448BF
:104D200002B010BD98E603209CE6032020E7032094
:104D3000A4E703203CE60320414C0D007047F8B582
:104D4000064615460C468F18BC4206D0336814F848
:104D5000011B9B6830469847F6E72846F8BD007C63
:104D60000022FFF75BBB007C0021FFF75FBB007CEC
:104D70000021FFF763BB007C0021FFF767BB007CCD
:104D80000021FFF76BBB10B51421044600F0C3F9F6
:104D9000204610BD10B54FF47A7304460846002132
:104DA000C4E90113034B236020741146FFF766FB2F
:104DB000204610BD64570D00002240681146FFF7E1
:104DC00001BC002240681146FFF71CBC002240686D
:104DD0001146FFF727BC40680022FFF71BBC406864
:104DE000002281F00101FFF705BC002340681A464C
:104DF0001946FFF7F7BB002340681A461946FFF72C
:104E0000E9BB002240681146FFF7CCBB4068002296
:104E10000221FFF7CFBB002340681A46FFF7BABB59
:104E2000024B04225A60024A1A607047B8E7032016
:104E30008C570D00002340681A46FFF7ABBB406853
:104E400000220221FFF7B6BB002240681146FFF79F
:104E5000A9BB002240681146FFF7B4BB002340689D
:104E60001A461946FFF7B6BB002340681A46194692
:104E7000FFF7B8BB40680021FFF7DCBB40680021AA
:104E8000FFF7E0BB4068002281F00101FFF7B2BBF1
:104E900040680022FFF7BEBB002240681146FFF7C2
:104EA000C1BB002240681146FFF7ACBB2DE9F043BF
:104EB000002495B016460D460746FFF7D5FD21465E
:104EC00018220EA8009400F079FB4023CDE90C34A1
:104ED00021466B460CAA3046FFF708FA0446002824
:104EE00046D1024601216868FFF76CFB022180462B
:104EF00022466868FFF766FB009E81462146002E29
:104F000036D0002934D17368022B03D00A2B0BD082
:104F1000F669F4E7B8F1000F04D07169384604313E
:104F2000FFF7CFFD4146F3E7B9F1000F01D1494644
:104F3000EEE77469102201A800F040FB06238DF80B
:104F4000143001AD04F108031834186859682A4672
:104F500003C20833A3421546F7D101A906A807AD3D
:104F6000FFF790FD0FCD3C1D0FC42B682370DEE7CB
:104F70000098FFF7B3F9384615B0BDE8F08300009C
:104F8000024B034A1A6000225A607047C0E70320B0
:104F9000C8570D00232813B502D9002002B010BD58
:104FA000A0F10B03022B1AD8174C2178BFF35B8FAB
:104FB00011F001010BD120460191FFF770F8019922
:104FC00028B11248FFF7A4FB2046FFF76DF80F4BFE
:104FD0001878FFF763FA0028DFD10120DEE7012807
:104FE00009D800F06BF80021007CFFF73FFA80F051
:104FF0000100C0B2D2E709380128EED8FFF774FEED
:10500000007CFFF7FBF9F2E7C8E70320CCE70320B9
:10501000232838B504460D460AD8FF2908D0FFF7E3
:10502000B9FF28B129462046BDE83840FFF76EB9E0
:1050300038BD38B504460D46FFF770F9FF2810D08B
:10504000062804D84D2323FA00F0C30709D42046CC
:10505000FFF7A0FF28B129462046BDE83840FFF7FA
:1050600065B938BD10B50446FFF758F9031FDBB228
:10507000012B08D92046FFF78DFF20B12046BDE85F
:105080001040FFF75BB9002010BD000038B50023C9
:10509000202543801423044603808560056106496A
:1050A000284600F03AF804496060284600F035F8D8
:1050B000E060204638BD00BFFC570D0030B50F4DF5
:1050C0002978BFF35B8F11F0010487B013D1284614
:1050D000FEF7E5FF78B101A8FFF7D8FF01AA214646
:1050E0000748FFF757FE2846FEF7DEFF054A064948
:1050F000034800F00BF8024807B030BDD8E70320A2
:10510000DCE703203CE603203D4D0D000B46014645
:10511000184600F037BAFEF7C0BFFEF7BCBF00006C
:1051200070B54FF0FF0C4CF4E06C1CEA11541DBF3D
:105130001CEA135594EA0C0F95EA0C0F00F0DEF808
:105140002C4481EA030621EA4C5123EA4C5350EAED
:10515000013518BF52EA033541F4801143F480133E
:1051600038D0A0FB02CE4FF00005E1FB02E506F0CF
:105170000042E0FB03E54FF00006E1FB03569CF024
:10518000000F18BF4EF0010EA4F1FF04B6F5007F2A
:1051900064F5407404D25FEA4E0E6D4146EB06069C
:1051A00042EAC62141EA55514FEAC52040EA5E5025
:1051B0004FEACE2EB4F1FD0C88BFBCF5E06F1ED8CF
:1051C000BEF1004F08BF5FEA500E50F1000041EB06
:1051D000045170BD06F0004646EA010140EA0200B3
:1051E00081EA0301B4EB5C04C2BFD4EB0C0541EAD5
:1051F000045170BD41F480114FF0000E013C00F3EA
:10520000AB8014F1360FDEBF002001F0004170BD0D
:10521000C4F10004203C35DA0C341BDC04F1140426
:10522000C4F1200500FA05F320FA04F001FA05F2B2
:1052300040EA020001F0004221F0004110EBD3707F
:1052400021FA04F642EB06015EEA430E08BF20EAAB
:10525000D37070BDC4F10C04C4F1200500FA04F34E
:1052600020FA05F001FA04F240EA020001F00041E0
:1052700010EBD37041F100015EEA430E08BF20EA53
:10528000D37070BDC4F1200500FA05F24EEA020E9B
:1052900020FA04F301FA05F243EA020321FA04F0CA
:1052A00001F0004121FA04F220EA020000EBD37081
:1052B0005EEA430E08BF20EAD37070BD94F0000F81
:1052C0000FD101F00046400041EB010111F4801FB5
:1052D00008BF013CF7D041EA060195F0000F18BF66
:1052E000704703F00046520043EB030313F4801FA2
:1052F00008BF013DF7D043EA0603704794EA0C0F5C
:105300000CEA135518BF95EA0C0F0CD050EA410671
:1053100018BF52EA4306D1D181EA030101F00041EE
:105320004FF0000070BD50EA410606BF1046194616
:1053300052EA430619D094EA0C0F02D150EA013622
:1053400013D195EA0C0F05D152EA03361CBF104663
:1053500019460AD181EA030101F0004141F0FE4102
:1053600041F470014FF0000070BD41F0FE4141F486
:10537000780170BD70B54FF0FF0C4CF4E06C1CEA86
:1053800011541DBF1CEA135594EA0C0F95EA0C0F3B
:1053900000F0A7F8A4EB050481EA030E52EA0335F6
:1053A0004FEA013100F088804FEA03334FF0805517
:1053B00045EA131343EA12634FEA022245EA111544
:1053C00045EA10654FEA00260EF000419D4208BFF5
:1053D000964244F1FD0404F5407402D25B084FEAA2
:1053E0003202B61A65EB03055B084FEA32024FF44E
:1053F00080104FF4002CB6EB020E75EB030E22BFAB
:10540000B61A754640EA0C005B084FEA3202B6EB6A
:10541000020E75EB030E22BFB61A754640EA5C0019
:105420005B084FEA3202B6EB020E75EB030E22BFA9
:10543000B61A754640EA9C005B084FEA3202B6EBAA
:10544000020E75EB030E22BFB61A754640EADC0069
:1054500055EA060E18D04FEA051545EA16754FEACB
:1054600006164FEAC30343EA52734FEAC2025FEAE9
:105470001C1CC0D111F4801F0BD141EA00014FF078
:1054800000004FF0004CB6E711F4801F04BF014349
:105490000020B4F1FD0C88BFBCF5E06F3FF6AFAE65
:1054A000B5EB030C04BFB6EB020C5FEA500C50F1F5
:1054B000000041EB045170BD0EF0004E4EEA113178
:1054C00014EB5C04C2BFD4EB0C0541EA045170BD7F
:1054D00041F480114FF0000E013C90E645EA060EC3
:1054E0008DE60CEA135594EA0C0F08BF95EA0C0FF1
:1054F0003FF43BAF94EA0C0F0AD150EA01347FF439
:1055000034AF95EA0C0F7FF425AF104619462CE70F
:1055100095EA0C0F06D152EA03353FF4FDAE104672
:10552000194622E750EA410618BF52EA43067FF4C3
:10553000C5AE50EA41047FF40DAF52EA43057FF453
:10554000EBAE12E74A0011D212F5001211D20DD5BE
:105550006FF47873B3EB62520ED44FEAC12343F079
:10556000004343EA505323FA02F070474FF0000023
:10557000704750EA013002D14FF0FF3070474FF0D2
:105580000000704710B5054C13462CB10A46014681
:105590000220AFF3008010BD2046FCE700000000B1
:1055A0000A44914200F1FF3300D1704710B511F861
:1055B000014B03F8014F9142F9D110BD024403465B
:1055C000934200D1704703F8011BF9E738B50D4B42
:1055D0001D68AB6B04467BB91820FFF743F80A4AF5
:1055E0000A4BA863C0E90023094B83600B23838126
:1055F00001220023C0E90423AB6B00221C615A6125
:1056000038BD00BFD8E503200E33CDAB34126DE6B4
:10561000ECDE0500034613F8012B002AFBD1181A13
:105620000138704721400D005D400D0085400D00A0
:1056300089400D00000000004D6F74696F6E20649A
:1056400065746563746564004E6F206D6F74696F77
:105650006E206465746563746564004D6F74696F72
:105660006E2053656E736F7220003A2000000000B8
:105670000B0000000C0000000D00000008000000FE
:105680000700000006000000050000000000000008
:1056900000000000F3460D00E9460D00DF460D0056
:1056A000D5460D00C9460D00BD460D00754E0D00D6
:1056B0007D4E0D00B1460D00A9460D009F460D0020
:1056C00095460D00AD4E0D006170700025592D25D9
:1056D0006D2D25645425483A254D3A2553257A00E9
:1056E00061736374696D65000000000000000000D4
:1056F000054A0D00F5490D00F7490D0000000000B6
:1057000000000000DB4A0D00434B0D00194B0D005B
:10571000B9470D000B4B0D00DD4A0D00ED4A0D00A1
:105720003D4B0D00FD4A0D00D74A0D000000000062
:1057300000000000414C0D00AD4C0D00854C0D00EB
:10574000B9470D00554C0D00714C0D00634C0D0018
:105750007F4C0D00434C0D00474C0D000000000035
:10576000000000003D4D0D00874D0D005F4D0D0008
:105770003F4D0D00674D0D006F4D0D00774D0D0035
:105780007F4D0D000000000000000000174E0D00CE
:105790000D4E0D00034E0D00B94D0D00F74D0D00DF
:1057A000EB4D0D00754E0D007D4E0D00DF4D0D00D3
:1057B000D74D0D00CD4D0D00C34D0D00AD4E0D006C
:1057C0000000000000000000354E0D003F4E0D00AF
:1057D000494E0D00534E0D005D4E0D00694E0D00FB
:1057E000754E0D007D4E0D00854E0D00914E0D0045
:1057F000994E0D00A34E0D00AD4E0D0000000000AF
:10580000FD460D0045470D0091470D006D480D0008
:105810007D480D00B5480D00214E0D00814F0D0053
:045820000000000084
:10582400E0560D00DCE5032000000000000000004D
:105834000000000000000000000000000000000064
:105844000000000000000000000000000000000054
:105854000000000000000000000000000000000044
:105864000000000000000000000000000000000034
:105874000000000000000000000000000000000024
:0858840000000000000000001C
:10588C00FFFFFFFF00000102030405060708090AD9
:10589C000B0C0D0E0F101112131415161718191AD4
:0858AC001B1C1D1E1F2028001B
:0458B40078563412DC
:04000003D0004020C9
:00000001FF
