:02000002D0002C
:1040000000400D0054510D00000006000C00050199
:08401000040135080000000066
:04401800044F0D0044
:10401C0009480A49884208B505D0094A824202D0AB
:10402C00121A00F027FF0748074A0021121A00F065
:10403C002FFF014808BD00BFD8E50320C4500D0078
:10404C0040E6032040E60320F0E7032070B5074E5E
:10405C00074C00F07FFBA41BA4080025A54200D14F
:10406C0070BD56F8043B98470135F7E794500D00A6
:10407C00B4500D0000F030B808B500F047F8BDE8BA
:10408C00084000F029BB00F0DFB900F0E5B900787A
:10409C00B0FA80F04009704701230370704708B5EF
:1040AC0001210C2000F075FE4FF4FA7000F0D2FAEA
:1040BC000C20002100F06DFEBDE808404FF4FA70B2
:1040CC0000F0C8BA08B5FFF7EAFFFFF7E8FFBDE854
:1040DC000840FFF7E4BF000013B50024012322467B
:1040EC00CDE900440749084800F09EF901210C2055
:1040FC0000F03EFE21460C2002B0BDE8104000F05E
:10410C0048BE00BFD1400D00184F0D007047000095
:10411C0008B5024B1B689B68019308BD680203003D
:10412C0008B5024B1B68DB68019308BD68020300ED
:10413C0008B5024B1B689B68019308BD2C02030059
:10414C0008B5024B1B68DB68019308BD2C02030009
:10415C0008B5024B1B681B69019308BD2C020300B8
:10416C0008B5024B1B685B68019308BD180203007D
:10417C0008B5024B1B685B69019308BD180203006C
:10418C0008B5024B1B685B6C019308BD4802030029
:10419C0008B5024B1B689B6C019308BD48020300D9
:1041AC0008B5024B1B685B69019308BD64020300F0
:1041BC0008B5024B1B681B68019308BD3C02030049
:1041CC0008B5024B1B68DB68019308BD3C02030079
:1041DC0008B5024B1B681B69019308BD3C02030028
:1041EC0008B5024B1B685B69019308BD3C020300D8
:1041FC0008B5024B1B689B69019308BD3C02030088
:10420C0008B5024B1B68DB69019308BD3C02030037
:10421C0008B5024B1B681B6A019308BD3C020300E6
:10422C0008B5024B1B689B6A019308BD3C02030056
:10423C0008B5024B1B681B6A019308BD28020300DA
:10424C0008B5024B1B685B6A019308BD280203008A
:10425C0008B5024B1B689B6A019308BD280203003A
:10426C0008B5024B1B68DB6A019308BD28020300EA
:10427C0008B5024B1B681B6B019308BD2802030099
:10428C0008B5024B1B685B6B019308BD2802030049
:10429C0008B5024B1B681B6C019308BD2802030078
:1042AC0008B5024B1B68DB69019308BD30020300A3
:1042BC0008B5024B1B681B6A019308BD3002030052
:1042CC0008B5024B1B681B68019308BD4C02030028
:1042DC0008B5024B1B681B69019308BD4C02030017
:1042EC0008B5024B1B685B69019308BD4C020300C7
:1042FC0008B5024B1B689B69019308BD4C02030077
:10430C0008B5024B1B68DB69019308BD4C02030026
:10431C0008B5024B1B681B6A019308BD4C020300D5
:10432C0008B5024B1B685B68019308BD20020300B3
:10433C0008B5024B1B685B69019308BD20020300A2
:10434C0008B5034B1B68D3F88830019308BD0000F7
:10435C002002030008B5034B1B68D3F8943001937B
:10436C0008BD00002002030008B5024B1B685B6807
:10437C00019308BD4002030008B5024B1B689B6803
:10438C00019308BD4002030008B5024B1B68DB68B3
:10439C00019308BD4002030008B5024B1B681B6962
:1043AC00019308BD4002030008B5024B1B685B6912
:1043BC00019308BD4002030008B5024B1B689B69C2
:1043CC00019308BD4002030008B5024B1B68DB6972
:1043DC00019308BD4002030008B5024B1B681B6A21
:1043EC00019308BD4002030008B5024B1B681B6B10
:1043FC00019308BD4002030008B5024B1B685B6BC0
:10440C00019308BD4002030008B5024B1B681B6CEE
:10441C00019308BD4002030008B5024B1B685B6C9E
:10442C00019308BD4002030008B5024B1B685B6A90
:10443C00019308BD4402030008B5024B1B68DB6BFB
:10444C00019308BD4402030008B5024B1B681B68AE
:10445C00019308BD1C02030008B5024B1B685B6886
:10446C00019308BD1C02030008B5024B1B685B6C72
:10447C00019308BD1C020300002240681146FFF79F
:10448C00ABBF002240681146FFF7B6BF4068002260
:10449C00FFF7AABF4068002281F00101FFF794BF2B
:1044AC00002340681A461946FFF786BF0023406870
:1044BC001A461946FFF778BF002240681146FFF7ED
:1044CC006BBF002240681146FFF756BF40680022C0
:1044DC000221FFF759BF002340681A46FFF744BF7B
:1044EC00024B03225A60024A1A60704744E60320CA
:1044FC00284F0D0010B5044608462170FFF7D0FE7A
:10450C0000236360204610BD10B50446006818B146
:10451C00FFF7A2FF0023236010BD10B50446FFF780
:10452C00F3FF204610BD000010B5094B094C0222C8
:10453C0000201A60084B2060A080A071A360FFF7D8
:10454C00EFFE2046054A0649BDE8104000F07ABC53
:10455C0058E603204CE603200000FFFF40E6032052
:10456C0027450D0010B50446006808B1FFF710FE92
:10457C00204610BD10B5064C002320462360FFF7E3
:10458C00FFFD2046034A0449BDE8104000F05ABC28
:10459C005CE6032040E6032071450D00F8B50646A5
:1045AC000D468F180024BD420CD0336815F8011B42
:1045BC009B6830469847031E01DB1C44F3E7002C34
:1045CC0008BF1C462046F8BD13B50446084659B131
:1045DC00019100F089FC23680199DB6802462046B2
:1045EC0002B0BDE81040184702B010BD03689B68CC
:1045FC00184730B58BB000238DF82430012A98BFB2
:10460C000A2209AC0D46B1FBF2F101FB125303F087
:10461C00FF03092B94BF30333733DBB2AA4204F8C3
:10462C00013DEFD92146FFF7CFFF0BB030BD0000A5
:10463C00014B024A1A60704760E603205C4F0D0084
:10464C00024B1A68024B1A60704700BFD8E5032072
:10465C0064E603200021FFF76BBE10B583680446A7
:10466C0013B1032201469847204610BD10B50446ED
:10467C00FFF7F3FF204610BD0348044A044900230A
:10468C00836000F0DFBB00BF68E6032040E6032038
:10469C0079460D00014B1860704700BFDCE5032024
:1046AC0008B50B4B43B100F051F903681B699847EF
:1046BC00002801DDAFF30080064B43B100F0C4F9D4
:1046CC0003681B699847002801DDAFF3008008BD23
:1046DC00000000000000000008B5FFF7E1FFFFF745
:1046EC0047FD014B186008BDD4E703200248034A7C
:1046FC000349121A00F0BEBB00F4032004F403209B
:10470C00C0500D0007B5002300931A466FF07701D7
:10471C00FFF720FE03B05DF804FB000007B54388EB
:10472C000A2B08D0502B0BD1094B1B684BB103B093
:10473C005DF804EB1847FFF7E5FF03B05DF804FBE9
:10474C00002300931A466FF07701FFF703FEF4E79E
:10475C007CE6032038B5124C1248134D0021FFF7AC
:10476C0083FE2368AB42114B0CBF012200221A704E
:10477C0002D0FFF7BBFF2560FFF7F2FC044600F008
:10478C008FFB0B4B13B12046AFF300800021084880
:10479C00FFF752FEBDE8384006480021FFF7D0BDB8
:1047AC0000F40320A1460D001E1C279A78E6032076
:1047BC000000000029470D00704710B51821044671
:1047CC0000F045FB204610BDF0B5037D062B8DB0E7
:1047DC000E4600F104074FF0000412D000F108055A
:1047EC0015F8011D0A223046FFF703FFAF420444BF
:1047FC0019D0002CF4D02E213046FFF7F7FE0444DC
:10480C00EEE72F236A4639460A208DF80040FFF761
:10481C00C7FC684600F068FB33680246DB686946F3
:10482C0030469847044620460DB0F0BD10B5054BF8
:10483C000446112240F8043B002100F029FB2046DD
:10484C0010BD00BF844F0D000346074A10B543F856
:10485C00042B01F1100251F8044B43F8044B914224
:10486C00F9D10A781A7010BD844F0D0010B59DF85F
:10487C00084044EA032343EA024242EA016104236A
:10488C004160037510BD13B5CB7800938B784A78D3
:10489C000978FFF7EBFF02B010BD41747047704709
:1048AC0008B50021007CFFF723FD40EAE07008BD4D
:1048BC0008B50121007CFFF71BFD40EAE07008BD44
:1048CC0008B5007CFFF70CFD20EAE07008BD08B5C8
:1048DC00007CFFF7FDFC20EAE07008BD13B5044630
:1048EC00007C0191FFF7FCFC0028019901DC607C45
:1048FC0020B1207CFFF704FD20EAE07002B010BD6F
:10490C00007CFFF705BD10B51421044600F09FFA9A
:10491C00204610BD10B54FF47A73044608460021AA
:10492C00C4E90113044B2360012320746374114602
:10493C00FFF7C6FC204610BD984F0D0010B5142291
:10494C000446002100F0A4FA204610BD10B5104C0E
:10495C0088B003A8FFF7F2FF2178BFF35B8F11F04B
:10496C00010111D120460191FFF791FB019958B13A
:10497C0003AA0848FFF7CEFF2046FFF78DFB064A37
:10498C000649044800F05EFA024808B010BD00BFAA
:10499C0080E6032084E6032040E60320AB480D00AC
:1049AC0070474174704708B5007CFFF739FC20EA6A
:1049BC00E07008BD08B5007CFFF70AFC20EAE07047
:1049CC0008BD08B5007CFFF713FC40EAE07008BD99
:1049DC0008B5007CFFF704FC40EAE07008BD007CE1
:1049EC00FFF70EBC37B5457C04462DB1207C03B0D7
:1049FC00BDE83040FFF7E4BB007C0191FFF710FCF1
:104A0C0000280199F2DC284603B030BD10B5142102
:104A1C00044600F01CFA204610BD000010B54FF003
:104A2C00000C0446084611464FF47A72C4E901C2E0
:104A3C00044A22600122207462741A46FFF7B8FB04
:104A4C00204610BDC84F0D0013B50E4C2178BFF396
:104A5C005B8F11F0010112D120460191FFF717FB7A
:104A6C00019960B1084A094B0948FFF7D7FF204666
:104A7C00FFF712FB074A0849054800F0E3F9044820
:104A8C0002B010BD98E603209CE6032020E703202B
:104A9C00A4E7032040E60320AD490D007047F8B5AC
:104AAC00064615460C468F18BC4206D0336814F8DF
:104ABC00011B9B6830469847F6E72846F8BD007CFA
:104ACC000022FFF7B5BB007C0021FFF7B9BB007CCF
:104ADC000021FFF7BDBB007C0021FFF7C1BB007CB0
:104AEC000021FFF7C5BB10B51421044600F0AFF947
:104AFC00204610BD10B54FF47A73044608460021C9
:104B0C00C4E90113034B236020741146FFF7C0FB6B
:104B1C00204610BDF84F0D00002240681146FFF7EB
:104B2C003BBC002240681146FFF756BC002240688F
:104B3C001146FFF761BC40680022FFF755BC406886
:104B4C00002281F00101FFF73FBC002340681A46A8
:104B5C001946FFF731BC002340681A461946FFF787
:104B6C0023BC002240681146FFF706BC40680022B7
:104B7C000221FFF709BC002340681A46FFF7F4BB7B
:104B8C00024B04225A60024A1A607047B8E70320AD
:104B9C0020500D00002340681A46FFF7E5BB406823
:104BAC0000220221FFF7F0BB002240681146FFF7FC
:104BBC00E3BB002240681146FFF7EEBB00234068C0
:104BCC001A461946FFF7F0BB002340681A461946EF
:104BDC00FFF7F2BB40680021FFF716BC40680021CC
:104BEC00FFF71ABC4068002281F00101FFF7ECBB13
:104BFC0040680022FFF7F8BB002240681146FFF71F
:104C0C00FBBB002240681146FFF7E6BB2DE9F043E1
:104C1C00002495B016460D460746FFF707FE2146C1
:104C2C0018220EA8009400F033F94023CDE90C347F
:104C3C0021466B460CAA3046FFF772FA0446002850
:104C4C0046D1024601216868FFF7A6FB0221804687
:104C5C0022466868FFF7A0FB009E81462146002E85
:104C6C0036D0002934D17368022B03D00A2B0BD019
:104C7C00F669F4E7B8F1000F04D0716938460431D5
:104C8C00FFF701FE4146F3E7B9F1000F01D14946A8
:104C9C00EEE77469102201A800F0FAF806238DF8EB
:104CAC00143001AD04F108031834186859682A4609
:104CBC0003C20833A3421546F7D101A906A807ADD4
:104CCC00FFF7C2FD0FCD3C1D0FC42B682370DEE730
:104CDC000098FFF71DFA384615B0BDE8F0830000C8
:104CEC00024B034A1A6000225A607047C0E7032047
:104CFC005C500D00232813B502D9002002B010BD62
:104D0C00A0F10B03022B1AD8174C2178BFF35B8F41
:104D1C0011F001010BD120460191FFF7B8F901996F
:104D2C0028B11248FFF7E6FB2046FFF7B5F90F4B09
:104D3C001878FFF7BDFA0028DFD10120DEE7012843
:104D4C0009D800F057F80021007CFFF799FA80F0A1
:104D5C000100C0B2D2E709380128EED8FFF774FE83
:104D6C00007CFFF755FAF2E7C8E70320CCE70320F5
:104D7C00232838B504460D460AD8FF2908D0FFF77A
:104D8C00B9FF28B129462046BDE83840FFF7D0B915
:104D9C0038BD38B504460D46FFF7D2F9FF2810D0C0
:104DAC00062804D84D2323FA00F0C30709D4204663
:104DBC00FFF7A0FF28B129462046BDE83840FFF791
:104DCC00C7B938BD38B500232025438014230446C9
:104DDC000380856005610649284600F03AF80449CD
:104DEC006060284600F035F8E060204638BD00BF12
:104DFC0090500D0030B50F4D2978BFF35B8F11F03B
:104E0C00010487B013D12846FFF741F978B101A806
:104E1C00FFF7D8FF01AA21460748FFF76BFE28468B
:104E2C00FFF73AF9054A0649034800F00BF8024827
:104E3C0007B030BDD8E70320DCE7032040E60320B1
:104E4C00A94A0D000B460146184600F005B8FFF7BD
:104E5C001CB9FFF718B9000010B5054C13462CB15E
:104E6C000A4601460220AFF3008010BD2046FCE745
:104E7C00000000000A44914200F1FF3300D170475A
:104E8C0010B511F8014B03F8014F9142F9D110BD47
:104E9C0002440346934200D1704703F8011BF9E723
:104EAC0038B50D4B1D68AB6B04467BB91820FFF76A
:104EBC00CBFA0A4A0A4BA863C0E90023094B83606A
:104ECC000B23838101220023C0E90423AB6B002256
:104EDC001C615A6138BD00BFDCE503200E33CDAB3D
:104EEC0034126DE6ECDE0500034613F8012B002AA4
:104EFC00FBD1181A013870471D400D0059400D00A8
:104F0C0081400D0085400D00000000007761766542
:104F1C00000000000000000000000000E3440D0051
:104F2C00D9440D00CF440D00C5440D00B9440D000B
:104F3C00AD440D00E14B0D00E94B0D00A1440D00FB
:104F4C0099440D008F440D0085440D00194C0D0043
:104F5C006170700025592D256D2D25645425483A16
:104F6C00254D3A2553257A0061736374696D65008C
:104F7C000000000000000000D5470D00C5470D00E3
:104F8C00C7470D000000000000000000AB480D00FA
:104F9C0013490D00E9480D00A9450D00DB480D0033
:104FAC00AD480D00BD480D000D490D00CD480D005C
:104FBC00A7480D000000000000000000AD490D00E6
:104FCC00194A0D00F1490D00A9450D00C1490D000C
:104FDC00DD490D00CF490D00EB490D00AF490D0027
:104FEC00B3490D000000000000000000A94A0D00AC
:104FFC00F34A0D00CB4A0D00AB4A0D00D34A0D000D
:10500C00DB4A0D00E34A0D00EB4A0D0000000000E6
:10501C0000000000834B0D00794B0D006F4B0D0011
:10502C00254B0D00634B0D00574B0D00E14B0D0054
:10503C00E94B0D004B4B0D00434B0D00394B0D0054
:10504C002F4B0D00194C0D0000000000000000005B
:10505C00A14B0D00AB4B0D00B54B0D00BF4B0D0024
:10506C00C94B0D00D54B0D00E14B0D00E94B0D006C
:10507C00F14B0D00FD4B0D00054C0D000F4C0D00C0
:10508C00194C0D0000000000ED440D0035450D00DD
:10509C0081450D003D460D004D460D0085460D0029
:1050AC008D4B0D00ED4C0D000000000000000000C9
:0450BC0000000000F0
:0450C00000000000EC
:1050C400744F0D00E0E50320000000000000000024
:1050D40000000000000000000000000000000000CC
:1050E40000000000000000000000000000000000BC
:1050F40000000000000000000000000000000000AC
:10510400000000000000000000000000000000009B
:10511400000000000000000000000000000000008B
:08512400000000000000000083
:10512C00FFFFFFFF00000102030405060708090A40
:10513C000B0C0D0E0F101112131415161718191A3B
:08514C001B1C1D1E1F20280082
:045154007856341243
:04000003D000401CCD
:00000001FF
