:02000002D0002C
:1040000000400D0068550D00000006000C00050181
:08401000040135080000000066
:044018000C530D0038
:10401C0009480A49884208B505D0094A824202D0AB
:10402C00121A01F021F90748074A0021121A01F06F
:10403C0029F9014808BD00BFD0E50320D4540D0078
:10404C003CE603203CE60320F0E7032070B5074E66
:10405C00074C00F051FDA41BA4080025A54200D17B
:10406C0070BD56F8043B98470135F7E7B0540D0086
:10407C00D0540D0000F05CB908B500F077F9BDE83C
:10408C00084000F0FBBC00F00FBB00F015BB007843
:10409C00B0FA80F0400970470123037070470000AC
:1040AC0038B50E49054600F00EFC044630B10C4BF9
:1040BC000121188801F067F8012038BD094928460C
:1040CC0000F001FC30B1064B2146188801F05BF87A
:1040DC002046F2E74FF0FF30EFE700BF20530D0012
:1040EC00D0E5032023530D001FB50849684600F0A6
:1040FC00BCFB6846FFF7D4FF684600F06BFB4FF43F
:10410C00FA7000F079FC05B05DF804FB20530D004B
:10411C001FB50849684600F0A8FB6846FFF7C0FFCA
:10412C00684600F057FB40F2DC5000F065FC05B02F
:10413C005DF804FB20530D001FB50849684600F0DC
:10414C0094FB6846FFF7ACFF684600F043FB4FF466
:10415C00FA7000F051FC05B05DF804FB23530D0020
:10416C001FB50849684600F080FB6846FFF798FFCA
:10417C00684600F02FFB40F2DC5000F03DFC05B02F
:10418C005DF804FB23530D001FB50849684600F089
:10419C006CFB6846FFF784FF684600F01BFB40F69B
:1041AC00AC5000F029FC05B05DF804FB23530D0066
:1041BC0070B505460E460024AB68A3421AD92146B9
:1041CC00284600F093FB03782A2B09D1FFF78CFFCC
:1041DC00AB68013BA34201D0FFF7AEFF0134EBE724
:1041EC002146284600F082FB03782D2BF0D1FFF7F7
:1041FC008FFFEDE71EB1BDE87040FFF7C5BFBDE80E
:10420C007040FFF7ADBF00001FB51249684600F0C3
:10421C002CFB00216846FFF7CBFF684600F0DAFA6A
:10422C000D49684600F021FB00216846FFF7C0FFEE
:10423C00684600F0CFFA0949684600F016FB0121E8
:10424C006846FFF7B5FF684600F0C4FA05B05DF8A4
:10425C0004FB00BF27530D002A530D0033530D00F0
:10426C001FB52D492D4C684600F0FFFA0021684619
:10427C00FFF79EFF684600F0ADFA2949684600F04A
:10428C00F4FA00216846FFF793FF684600F0A2FAA3
:10429C002146684600F0E9FA00216846FFF788FFDE
:1042AC00684600F097FA2146684600F0DEFA0021D5
:1042BC006846FFF77DFF684600F08CFA194968469E
:1042CC0000F0D3FA00216846FFF772FF684600F051
:1042DC0081FA1549684600F0C8FA00216846FFF7D4
:1042EC0067FF684600F076FA1049684600F0BDFAA0
:1042FC0000216846FFF75CFF684600F06BFA214628
:10430C00684600F0B2FA01216846FFF751FF684693
:10431C0000F060FA04B010BD2C530D0032530D00A8
:10432C002F530D0029530D0033530D002A530D004C
:10433C0010B50A4C0121208800F014FF084A0949E5
:10434C00094800F021FC2088002100F01CFFFFF739
:10435C005BFFBDE81040FFF783BF00BFD0E5032033
:10436C0036530D00AD400D00694B0D007047000039
:10437C0008B5024B1B689B68019308BD68020300DB
:10438C0008B5024B1B68DB68019308BD680203008B
:10439C0008B5024B1B689B68019308BD2C020300F7
:1043AC0008B5024B1B68DB68019308BD2C020300A7
:1043BC0008B5024B1B681B69019308BD2C02030056
:1043CC0008B5024B1B685B68019308BD180203001B
:1043DC0008B5024B1B685B69019308BD180203000A
:1043EC0008B5024B1B685B6C019308BD48020300C7
:1043FC0008B5024B1B689B6C019308BD4802030077
:10440C0008B5024B1B685B69019308BD640203008D
:10441C0008B5024B1B681B68019308BD3C020300E6
:10442C0008B5024B1B68DB68019308BD3C02030016
:10443C0008B5024B1B681B69019308BD3C020300C5
:10444C0008B5024B1B685B69019308BD3C02030075
:10445C0008B5024B1B689B69019308BD3C02030025
:10446C0008B5024B1B68DB69019308BD3C020300D5
:10447C0008B5024B1B681B6A019308BD3C02030084
:10448C0008B5024B1B689B6A019308BD3C020300F4
:10449C0008B5024B1B681B6A019308BD2802030078
:1044AC0008B5024B1B685B6A019308BD2802030028
:1044BC0008B5024B1B689B6A019308BD28020300D8
:1044CC0008B5024B1B68DB6A019308BD2802030088
:1044DC0008B5024B1B681B6B019308BD2802030037
:1044EC0008B5024B1B685B6B019308BD28020300E7
:1044FC0008B5024B1B681B6C019308BD2802030016
:10450C0008B5024B1B68DB69019308BD3002030040
:10451C0008B5024B1B681B6A019308BD30020300EF
:10452C0008B5024B1B681B68019308BD4C020300C5
:10453C0008B5024B1B681B69019308BD4C020300B4
:10454C0008B5024B1B685B69019308BD4C02030064
:10455C0008B5024B1B689B69019308BD4C02030014
:10456C0008B5024B1B68DB69019308BD4C020300C4
:10457C0008B5024B1B681B6A019308BD4C02030073
:10458C0008B5024B1B685B68019308BD2002030051
:10459C0008B5024B1B685B69019308BD2002030040
:1045AC0008B5034B1B68D3F88830019308BD000095
:1045BC002002030008B5034B1B68D3F89430019319
:1045CC0008BD00002002030008B5024B1B685B68A5
:1045DC00019308BD4002030008B5024B1B689B68A1
:1045EC00019308BD4002030008B5024B1B68DB6851
:1045FC00019308BD4002030008B5024B1B681B6900
:10460C00019308BD4002030008B5024B1B685B69AF
:10461C00019308BD4002030008B5024B1B689B695F
:10462C00019308BD4002030008B5024B1B68DB690F
:10463C00019308BD4002030008B5024B1B681B6ABE
:10464C00019308BD4002030008B5024B1B681B6BAD
:10465C00019308BD4002030008B5024B1B685B6B5D
:10466C00019308BD4002030008B5024B1B681B6C8C
:10467C00019308BD4002030008B5024B1B685B6C3C
:10468C00019308BD4002030008B5024B1B685B6830
:10469C00019308BD4402030008B5024B1B68DB6B99
:1046AC00019308BD4402030008B5024B1B681B684C
:1046BC00019308BD1C02030008B5024B1B685B6824
:1046CC00019308BD1C02030008B5024B1B689B68D4
:1046DC00019308BD1C02030008B5024B1B685B6C00
:1046EC00019308BD1C020300002240681146FFF72D
:1046FC00A3BF002240681146FFF7AEBF40680022FE
:10470C00FFF7A2BF4068002281F00101FFF78CBFC8
:10471C00002340681A461946FFF77EBF0023406805
:10472C001A461946FFF770BF002240681146FFF782
:10473C0063BF002240681146FFF74EBF406800225D
:10474C000221FFF751BF002340681A46FFF73CBF18
:10475C00024B03225A60024A1A60704740E603205B
:10476C0044530D0010B5044608462170FFF7C8FEEF
:10477C0000236360204610BD10B50446006818B1D4
:10478C00FFF79AFF0023236010BD10B50446FFF716
:10479C00F3FF204610BD000010B5094B094C022256
:1047AC0000201A60084B2060A080A071A360FFF766
:1047BC00E7FE2046054A0649BDE8104000F03CBD26
:1047CC0054E6032048E603200000FFFF3CE60320EC
:1047DC0097470D0010B504460068FFF76DFF2046A3
:1047EC0010BD10B50446006808B1FFF765FF002343
:1047FC00C4E90133236010BD38B504460D4600688A
:10480C000131FFF761FF10B1C4E90005012038BD8B
:10481C0010B50368044623B143688B4201D30120D1
:10482C0010BD2046FFF7E8FF0028F9D0A368002B45
:10483C00F5D122681370F2E737B50D461146019297
:10484C000446FFF7E5FF019A28B92046FFF7C9FF98
:10485C00204603B030BDA2602946206800F004FD5C
:10486C002268A3680021D154F2E7002313B5C0E9F4
:10487C00003304468360037341B10846019100F094
:10488C0037FD019902462046FFF7D6FF204602B0BD
:10489C0010BD884210B5044605D00B682BB18A6850
:1048AC001946FFF7C9FF204610BDFFF79AFFFAE73C
:1048BC0010B500230446C0E9003383600373FFF78F
:1048CC00E8FF204610BD08B582683AB921B10878D6
:1048DC00B0FA80F0400900E0012008BD006809B979
:1048EC000078F5E700F0FAFCF2E7000083688B42F1
:1048FC0001D9006818B903480023037070470844B5
:10490C00704700BF58E6032010B50446006808B194
:10491C00FFF76EFD204610BD10B5064C0023204657
:10492C002360FFF75DFD2046034A0449BDE81040B3
:10493C0000F082BC5CE603203CE6032015490D0028
:10494C00F8B506460D468F180024BD420CD03368CE
:10495C0015F8011B9B6830469847031E01DB1C446D
:10496C00F3E7002C08BF1C462046F8BD13B50446DF
:10497C00084659B1019100F0BBFC23680199DB6832
:10498C000246204602B0BDE81040184702B010BDE8
:10499C0003689B68184730B58BB000238DF8243022
:1049AC00012A98BF0A2209AC0D46B1FBF2F101FBBA
:1049BC00125303F0FF03092B94BF30333733DBB2B0
:1049CC00AA4204F8013DEFD92146FFF7CFFF0BB007
:1049DC0030BD0000014B024A1A60704760E60320AC
:1049EC0078530D00024B1A68024B1A60704700BFD7
:1049FC00D4E5032064E603200021FFF7C9BD10B500
:104A0C008368044613B1032201469847204610BD23
:104A1C0010B50446FFF7F3FF204610BD0348044AC7
:104A2C0004490023836000F007BC00BF68E6032044
:104A3C003CE603201D4A0D00014B1860704700BF77
:104A4C00D8E5032008B50B4B43B100F079F90368A6
:104A5C001B699847002801DDAFF30080064B43B17A
:104A6C0000F0ECF903681B699847002801DDAFF3EF
:104A7C00008008BD000000000000000008B5FFF732
:104A8C00E1FFFFF7A5FC014B186008BDD4E703203C
:104A9C000248034A0349121A00F0E6BB00F4032053
:104AAC0004F40320D0540D0007B5002300931A46DC
:104ABC006FF07701FFF77EFD03B05DF804FB00009B
:104ACC0007B543880A2B08D0502B0BD1094B1B6818
:104ADC004BB103B05DF804EB1847FFF7E5FF03B0EB
:104AEC005DF804FB002300931A466FF07701FFF783
:104AFC0061FDF4E77CE6032038B5124C1248134DE7
:104B0C000021FFF7E9FD2368AB42114B0CBF0122DA
:104B1C0000221A7002D0FFF7BBFF2560FFF750FC94
:104B2C00044600F0B7FB0B4B13B12046AFF30080EB
:104B3C0000210848FFF7B0FDBDE8384006480021C9
:104B4C00FFF72EBD00F40320454A0D001E1C279ACA
:104B5C0078E6032000000000CD4A0D0010B588B0A7
:104B6C0004466846FFF781FE694604A8FFF7A0FEDD
:104B7C0004A8A047044604A8FFF72CFE6846FFF7DC
:104B8C0029FE204608B010BD1FB50023CDE9020157
:104B9C00019210241A4669461846ADF80230ADF859
:104BAC000040FFF771FD04B010BD704710B518211F
:104BBC00044600F046FB204610BDF0B5037D062BE5
:104BCC008DB00E4600F104074FF0000412D000F136
:104BDC00080515F8011D0A223046FFF7DCFEAF422E
:104BEC00044419D0002CF4D02E213046FFF7D0FE0F
:104BFC000444EEE72F236A4639460A208DF800401C
:104C0C00FFF7FEFB684600F073FB33680246DB6877
:104C1C00694630469847044620460DB0F0BD00006A
:104C2C0010B5054B0446112240F8043B002100F05E
:104C3C0029FB204610BD00BFA0530D000346074AB8
:104C4C0010B543F8042B01F1100251F8044B43F852
:104C5C00044B9142F9D10A781A7010BDA0530D0083
:104C6C0010B59DF8084044EA032343EA024242EAA5
:104C7C00016104234160037510BD13B5CB7800931B
:104C8C008B784A780978FFF7EBFF02B010BD4174BE
:104C9C007047704708B50021007CFFF759FC40EACB
:104CAC00E07008BD08B50121007CFFF751FC40EA1B
:104CBC00E07008BD08B5007CFFF742FC20EAE0700C
:104CCC0008BD08B5007CFFF733FC20EAE07008BD96
:104CDC0013B50446007C0191FFF732FC00280199C2
:104CEC0001DC607C20B1207CFFF73AFC20EAE0700C
:104CFC0002B010BD007CFFF73BBC10B5142104467C
:104D0C0000F09FFA204610BD10B54FF47A7304469C
:104D1C0008460021C4E90113044B236001232074CD
:104D2C0063741146FFF7FCFB204610BDB4530D0015
:104D3C0010B514220446002100F0A4FA204610BD40
:104D4C0010B5104C88B003A8FFF7F2FF2178BFF321
:104D5C005B8F11F0010111D120460191FFF797F9FA
:104D6C00019958B103AA0848FFF7CEFF2046FFF778
:104D7C0093F9064A0649044800F05EFA024808B066
:104D8C0010BD00BF80E6032084E603203CE6032030
:104D9C009F4C0D0070474174704708B5007CFFF7BD
:104DAC006FFB20EAE07008BD08B5007CFFF740FB04
:104DBC0020EAE07008BD08B5007CFFF749FB40EA2B
:104DCC00E07008BD08B5007CFFF73AFB40EAE070E4
:104DDC0008BD007CFFF744BB37B5457C04462DB1BC
:104DEC00207C03B0BDE83040FFF71ABB007C01917A
:104DFC00FFF746FB00280199F2DC284603B030BDD2
:104E0C0010B51421044600F01CFA204610BD000019
:104E1C0010B54FF0000C0446084611464FF47A7258
:104E2C00C4E901C2044A22600122207462741A4649
:104E3C00FFF7EEFA204610BDE4530D0013B50E4CEF
:104E4C002178BFF35B8F11F0010112D12046019143
:104E5C00FFF71DF9019960B1084A094B0948FFF7A2
:104E6C00D7FF2046FFF718F9074A0849054800F014
:104E7C00E3F9044802B010BD98E603209CE6032039
:104E8C0020E70320A4E703203CE60320A14D0D00FE
:104E9C007047F8B5064615460C468F18BC4206D02E
:104EAC00336814F8011B9B6830469847F6E7284690
:104EBC00F8BD007C0022FFF7EBBA007C0021FFF765
:104ECC00EFBA007C0021FFF7F3BA007C0021FFF75A
:104EDC00F7BA007C0021FFF7FBBA10B51421044689
:104EEC0000F0AFF9204610BD10B54FF47A730446AC
:104EFC0008460021C4E90113034B236020741146BA
:104F0C00FFF7F6FA204610BD14540D00002240683D
:104F1C001146FFF771BB002240681146FFF78CBBAE
:104F2C00002240681146FFF797BB40680022FFF74C
:104F3C008BBB4068002281F00101FFF775BB002399
:104F4C0040681A461946FFF767BB002340681A46AB
:104F5C001946FFF759BB002240681146FFF73CBBCE
:104F6C00406800220221FFF73FBB002340681A462D
:104F7C00FFF72ABB024B04225A60024A1A607047A0
:104F8C00B8E703203C540D00002340681A46FFF795
:104F9C001BBB406800220221FFF726BB00224068A1
:104FAC001146FFF719BB002240681146FFF724BBDE
:104FBC00002340681A461946FFF726BB00234068B9
:104FCC001A461946FFF728BB40680021FFF74CBB77
:104FDC0040680021FFF750BB4068002281F00101BE
:104FEC00FFF722BB40680022FFF72EBB002240686F
:104FFC001146FFF731BB002240681146FFF71CBB7E
:10500C002DE9F043002495B016460D460746FFF7F0
:10501C0007FE214618220EA8009400F033F9402315
:10502C00CDE90C3421466B460CAA3046FFF7A8F9A3
:10503C000446002846D1024601216868FFF7DCFAD5
:10504C000221804622466868FFF7D6FA009E814608
:10505C002146002E36D0002934D17368022B03D0A0
:10506C000A2B0BD0F669F4E7B8F1000F04D0716984
:10507C0038460431FFF701FE4146F3E7B9F1000F62
:10508C0001D14946EEE77469102201A800F0FAF844
:10509C0006238DF8143001AD04F108031834186898
:1050AC0059682A4603C20833A3421546F7D101A911
:1050BC0006A807ADFFF7C2FD0FCD3C1D0FC42B6832
:1050CC002370DEE70098FFF753F9384615B0BDE8BA
:1050DC00F0830000024B034A1A6000225A607047AA
:1050EC00C0E7032078540D00232813B502D9002003
:1050FC0002B010BDA0F10B03022B1AD8174C21786B
:10510C00BFF35B8F11F001010BD120460191FEF72B
:10511C00BEFF019928B11248FFF724FB2046FEF789
:10512C00BBFF0F4B1878FFF7F3F90028DFD10120F4
:10513C00DEE7012809D800F057F80021007CFFF7C2
:10514C00CFF980F00100C0B2D2E709380128EED8BF
:10515C00FFF774FE007CFFF78BF9F2E7C8E703203A
:10516C00CCE70320232838B504460D460AD8FF297E
:10517C0008D0FFF7B9FF28B129462046BDE83840D2
:10518C00FFF706B938BD38B504460D46FFF708F9E8
:10519C00FF2810D0062804D84D2323FA00F0C307AB
:1051AC0009D42046FFF7A0FF28B129462046BDE8C8
:1051BC003840FFF7FDB838BD38B5002320254380B3
:1051CC00142304460380856005610649284600F0D7
:1051DC003AF804496060284600F035F8E060204653
:1051EC0038BD00BFAC540D0030B50F4D2978BFF35E
:1051FC005B8F11F0010487B013D12846FEF747FFEF
:10520C0078B101A8FFF7D8FF01AA21460748FFF79C
:10521C006BFE2846FEF740FF054A0649034800F09E
:10522C000BF8024807B030BDD8E70320DCE70320B9
:10523C003CE603209D4E0D000B460146184600F03F
:10524C0005B8FEF722BFFEF71EBF000010B5054CD7
:10525C0013462CB10A4601460220AFF3008010BD64
:10526C002046FCE7000000000A44914200F1FF33A5
:10527C0000D1704710B511F8014B03F8014F914262
:10528C00F9D110BD02440346934200D1704703F894
:10529C00011BF9E738B50D4B1D68AB6B04467BB9A8
:1052AC001820FFF701FA0A4A0A4BA863C0E9002349
:1052BC00094B83600B23838101220023C0E9042363
:1052CC00AB6B00221C615A6138BD00BFD8E50320CE
:1052DC000E33CDAB34126DE6ECDE050010F8012B6D
:1052EC0011F8013B012A28BF9A42F7D0D01A704717
:1052FC00034613F8012B002AFBD1181A013870470A
:10530C001D400D0059400D0081400D0085400D00E1
:10531C00000000006F6E006F6666002D2A2A2A00BE
:10532C002D2D002A2D002A2D2A006C65640000000A
:10533C00000000000000000053470D0049470D001D
:10534C003F470D0035470D0029470D001D470D0047
:10535C00D54F0D00DD4F0D0011470D0009470D0015
:10536C00FF460D00F5460D000D500D0061707000EC
:10537C0025592D256D2D25645425483A254D3A2562
:10538C0053257A0061736374696D65000000000039
:10539C0000000000C74B0D00B74B0D00B94B0D00C2
:1053AC0000000000000000009F4C0D00074D0D0098
:1053BC00DD4C0D004D490D00CF4C0D00A14C0D00E6
:1053CC00B14C0D00014D0D00C14C0D009B4C0D005E
:1053DC000000000000000000A14D0D000D4E0D005E
:1053EC00E54D0D004D490D00B54D0D00D14D0D0095
:1053FC00C34D0D00DF4D0D00A34D0D00A74D0D004D
:10540C0000000000000000009D4E0D00E74E0D0056
:10541C00BF4E0D009F4E0D00C74E0D00CF4E0D0020
:10542C00D74E0D00DF4E0D00000000000000000004
:10543C00774F0D006D4F0D00634F0D00194F0D0090
:10544C00574F0D004B4F0D00D54F0D00DD4F0D008C
:10545C003F4F0D00374F0D002D4F0D00234F0D000A
:10546C000D500D000000000000000000954F0D00D5
:10547C009F4F0D00A94F0D00B34F0D00BD4F0D00F8
:10548C00C94F0D00D54F0D00DD4F0D00E54F0D0040
:10549C00F14F0D00F94F0D0003500D000D500D0094
:1054AC00000000005D470D00A5470D0025490D00CB
:1054BC00E1490D00F1490D00294A0D00814F0D0005
:0454CC00E1500D009E
:0454D00000000000D8
:1054D4000700000090530D00DCE5032000000000ED
:1054E40000000000000000000000000000000000B8
:1054F40000000000000000000000000000000000A8
:105504000000000000000000000000000000000097
:105514000000000000000000000000000000000087
:105524000000000000000000000000000000000077
:0C5534000000000000000000000000006B
:10554000FFFFFFFF00000102030405060708090A28
:105550000B0C0D0E0F101112131415161718191A23
:085560001B1C1D1E1F2028006A
:04556800785634122B
:04000003D000401CCD
:00000001FF
